:020000040800F2
:10000000980E002049010008914400085B31000867
:10001000C942000815080008E54D0008000000006E
:10002000000000000000000000000000014800087F
:100030004F0800080000000093440008034800082F
:100040006301000863010008630100086301000800
:1000500063010008630100086301000863010008F0
:1000600063010008630100086301000863010008E0
:100070006301000819080008630100086301000813
:1000800063010008630100083507000863010008E8
:1000900063010008630100086301000851080008BB
:1000A00063010008630100086301000863010008A0
:1000B0006301000863010008630100086301000890
:1000C0006301000863010008630100084946000855
:1000D00063010008C14D0008CD4D0008D94D00084E
:1000E0006301000863010008630100086301000860
:1000F0006301000863010008630100086301000850
:1001000063010008630100088548000863010008D6
:10011000354B000863010008914800089D4800081D
:10012000630100086301000863010008630100081F
:10013000DFF810D000F0ECFA00480047C553000883
:10014000AFF30080980E002006488047064800471D
:10015000FEE7FEE7FEE7FEE7FEE7FEE7FEE7FEE777
:10016000FEE7FEE78148000831010008202A04DB91
:10017000203A21FA02F00021704721FA02F3D04020
:10018000C2F12002914008431946704740EA01033A
:100190009B0703D009E008C9121F08C0042AFAD23D
:1001A00003E011F8013B00F8013B521EF9D2704701
:1001B000D2B201E000F8012B491EFBD270470022A9
:1001C000F6E710B513460A4604461946FFF7F0FF56
:1001D000204610BDF0B480EA0102D40F4200B2EB19
:1001E000410F02D20246084611464A0042D0C30DD2
:1001F000DDB2C1F3C752AD1A202D35DAC1F31601B5
:1002000041F4000204B15242C5F1200602FA06F19F
:100210002A411044B3EBD05F23D0C4B1012DA0EB31
:10022000C35009DCF0BC4FF0004202EAC352DBB21B
:1002300000F5000000F0E0B9400000F1807000EB34
:10024000C350A0F1807040EAD170490009E049082C
:1002500041EAC071A0EBC35000F50000400800EB7C
:10026000C350F0BC00F0BFB96142012202EB410172
:10027000001BF6E7F0BC704781F00041AAE780F070
:100280000040A7E780EA010210B502F000434000F9
:1002900022D04A001FD0010E01EB1261C0F35600BC
:1002A000C2F3560240F4000042F40002A0FB022018
:1002B00000047F39140400D0401C50EA124001D4DD
:1002C0004000491EC2B20C0604EBD010401C40088E
:1002D000802A02D003E0002010BD20F00100002998
:1002E00000DA0020184310BD30B480EA010202F0A9
:1002F000004530F0004221F0004013D090B1C30D12
:10030000D40DC2F31601C0F31600E41A41F4000143
:1003100040F400027D34914201D3641C00E04900A6
:10032000002C02DA30BC002070474FF4000000239C
:10033000914201D3891A034340084FEA4101F7D1A2
:1003400051B1914202D14FF0004105E002D24FF08D
:10035000010101E06FF0010103EBC450284430BCFF
:1003600000F041B92DE9FE4F804681EA0300C00F3D
:100370000C46009021F0004123F00045B8EB02004C
:10038000A94105D24046214690461C460B460246EE
:1003900023F00040104347D0270DC7F30A00C3F3F2
:1003A0000A510290401A019040286BDAC3F31300FF
:1003B00040F4801B0098924620B10023D2EB030A40
:1003C00063EB0B0B01985946C0F14002504600F018
:1003D000E9F806460D4650465946019A00F0F1F8F4
:1003E00010EB08006141002487EA115284EAE773A8
:1003F0001A4340D0009A62B3019A012A4FEA075289
:1004000015DC001B61EB02014FF0004202EA0752CB
:10041000CDE90042001C41F5801132462B4600F028
:1004200028F903B0BDE8F08F40462146F9E7001BEC
:1004300061EB0201001C41F5801300185B4120189C
:10044000A2F5001747EB030140EAD570B6196D41DC
:1004500011E06D084FEA360645EAC0754FEA0752CB
:10046000001B61EB0201001C41F5801149084FEAB5
:1004700030000019514132462B4603B0BDE8F04F21
:1004800000F0E8B80098012240000023D0EB0202FF
:1004900063EBE073009821464FEAE074B8EB00008C
:1004A00061EB0401E9E783F000435BE781F0004181
:1004B00058E796230022114600F09EB820F0004035
:1004C000C10DC0F3160040F400007F2901DA0020BE
:1004D0007047962903DCC1F19601C84070479639F0
:1004E0008840704700F0004230F000400AD0C10D53
:1004F00001F56071C0F3160042EA0151C2084007DD
:100500001143704700200146704701F0004330B4AA
:1005100021F0004150EA010206D00A0DA2F56072F6
:10052000C1F31301002A02DC30BC00207047440FE5
:1005300044EAC104C100E01830BC00EBC25000F036
:1005400052B82DE9F05F0546002092469B4688464A
:100550000646814640241BE028464146474622463F
:10056000FFF704FE53465A46C01A914110D3114674
:100570001846224600F016F82D1A67EB01084F4680
:1005800022460120002100F00DF817EB00094E4132
:10059000201EA4F10104DFDC484631462A464346CA
:1005A000BDE8F09F202A04DB203A00FA02F1002087
:1005B00070479140C2F1200320FA03F319439040A1
:1005C0007047202A06DBCB17203A41FA02F043EAB3
:1005D000E07306E041FA02F3D040C2F120029140FC
:1005E0000843194670470029A8BF7047401C4900BE
:1005F00008BF20F00100704710B4B0FA80FC00FA88
:100600000CF050EA010404BF10BC704749B1CCF1B2
:10061000200421FA04F411FA0CF118BF012121433E
:100620000843A3EB0C01CB1D4FEA00614FEA1020F9
:1006300042BF002010BC704700EBC350104400299B
:10064000A4BF10BC7047401C490008BF20F0010047
:1006500010BC704710B5141E73F1000408DA401C7A
:1006600041F1000192185B411A4301D120F00100D1
:1006700010BD2DE9F04D92469B4611B1B1FA81F2C1
:1006800002E0B0FA80F220329046FFF78BFF04467A
:100690000F4640EA0A0041EA0B0153465A46084316
:1006A00013D0114653EA010019D0C8F14002504658
:1006B000FFF75CFD05460E46504659464246FFF799
:1006C00071FF084305D0012004E020463946BDE80B
:1006D000F08D0020054346EAE0762C4337430A9824
:1006E0006305E40AA0EB08000022FD0A44EA47542F
:1006F0000A3002D500200146E9E7010510196941D9
:10070000DDE9084500196941BDE8F04DA2E70000A8
:10071000064C074D06E0E06840F0010394E807004E
:1007200098471034AC42F6D3FFF706FD841C01084D
:10073000A41C0108014800F043BB00002C0000206D
:1007400070B5044600688168C943C90717D181683C
:1007500021F00101816001F009F905460AE000BFBE
:1007600001F004F9401B022804D920688068C043C6
:10077000C00706D020688068C043C007F0D00020C2
:1007800070BDA06A40F01000A062E06A40F0010075
:10079000E062012070BD0000F8B500260446009616
:1007A00000688168C943C9072DD0816841F0010103
:1007B0008160164816490068B0FBF1F000E0401E69
:1007C00000900028FBD101F0D1F8054616E000BFEB
:1007D00001F0CCF8401B022810D920688068C04383
:1007E000C0070BD0A06A40F01000A062E06A40F0A1
:1007F0000100E06284F824600120F8BD2068806870
:10080000C043C007E4D10020F8BD00001000002064
:1008100040420F00FEE70000014800F0E1BD00008B
:10082000B400002030B590F840500124AC40C56BB6
:100830006C60046863604368102B036803D09960A0
:100840000068C26030BD9A600068C16030BD70470A
:10085000402000F079BF72B6FEE70000FEB548F216
:10086000304424234FF49B752A4619460A200094ED
:1008700002F068FF4BF640409A2340F21D160090AC
:1008800032461946232002F05DFFD2232A4619463C
:100890000A20009402F056FF04F084FC04F0BAFE33
:1008A00004F0B0FC9E4C9F4D9FA2208800902B88A6
:1008B000F5210D2003F0EEFD4FF49C719B48CDE92E
:1008C00000010D220C231146304603F0DDF9298882
:1008D0002088CDE900010C2346223221382003F084
:1008E000D7F829882088CDE900010C234D22322138
:1008F000822003F0CDF829882088CDE900010C235F
:1009000052223221CC2003F0C3F804F09DFE40F2C5
:100910007236874FCDE9007615231A4643214520CC
:1009200003F0B2F9CDE9007615231A4643218F2052
:1009300003F0AAF9CDE9007615231A464321D92000
:1009400003F0A2F904F0AEFECDE9007615231A46B5
:100950007F21452003F098F9CDE9007615231A464A
:100960007F218F2003F090F9CDE9007615231A46F8
:100970007F21D92003F088F94FF4E1666D4FCDE96E
:1009800000761E231A465C212E2003F07DF9CDE966
:1009900000761E231A465C21782003F075F9CDE914
:1009A00000761E231A465C21C22003F06DF94FF435
:1009B0000066A7F50060CDE9000620231A4638211D
:1009C000FA2003F061F904F06FFB04F0E1FC07F595
:1009D0007D50CDE9000620231A46A6215E2003F0B3
:1009E00053F904F033FC04F079FB4FF4BD61524835
:1009F000CDE9000115232422AC21B42003F044F9F1
:100A0000208800902B884DA2A221F02003F0E4FD65
:100A1000208800902B884BA2BE21F02003F0DCFD43
:100A200004F096FB2888218810260096CDE9011055
:100A300002231822DC21142003F0C0F82988208822
:100A4000CDE9000110235622DC21282003F020F8F4
:100A500029882088CDE9000110233A22DC213220A8
:100A600003F016F829882088CDE9000110234122DF
:100A7000DC21572003F00CF8288821880096CDE966
:100A8000011002232422DC21782003F097F8298822
:100A90002088CDE9000110235622DC218C2002F0B1
:100AA000F7FF29882088CDE9000110233A22DC21B4
:100AB000962002F0EDFF29882088CDE9000110235F
:100AC0004122DC21BB2002F0E3FF28882188009628
:100AD000CDE90110DC2102232A22084603F06EF83A
:100AE00029882088CDE9000110235622DC21F0203E
:100AF00002F0CEFF29882088CDE9000110233A2298
:100B0000DC21FA2002F0C4FF29882088CDE9000109
:100B100010234122DC2140F21F1002F0B9FFFEBD7C
:100B20002400002026000020B6C800004ACC00089F
:100B3000D8C80008B07B0008F0C20008B9A6C2CA35
:100B400000000000B7E7CBD90000000011480021E9
:100B50000123017743770322027043708170C270D2
:100B6000322202714371C271027242721922827280
:100B7000C2720273427341228273074A0261074ABA
:100B80004261074A8261074801704170C1708170FB
:100B900070470000040400209A99993F9A9959409F
:100BA0003333B3401400002070B5054600240A48D2
:100BB00000F0FAFA3221084800F058FA064800F02E
:100BC000FAF8800504D5044800F0F7F825F8140079
:100BD000641C052CEBDB70BD2C000020F8B5002553
:100BE0000446009590F8240001280BD0012084F8D9
:100BF00024002046FFF7A4FD2046FFF7CDFD0600A8
:100C000002D050E00220F8BDA06A20F4885040F0E5
:100C10000200A062022000F047FF25490968B1FBED
:100C2000F0F0400000E0401E00900028FBD120685A
:100C3000816841F00801816000F098FE074608E0F5
:100C400000F094FEC01B0A2803D9206880680007C2
:100C500015D4206880680007F2D42068816841F0CC
:100C60000401816000F082FE074612E000F07EFE83
:100C7000C01B0A280DD920688068400709D5A06AE2
:100C800020F0020040F01000A06284F824500120FF
:100C9000F8BD206880684007E8D4A06A20F0020010
:100CA00040F00100A06284F824503046F8BD0000F6
:100CB0001000002070470000F8B50024009490F860
:100CC00024202546012A12D0012280F824204A68D7
:100CD0001F23072A0DD20668776B521E02EB820291
:100CE00093409F430B6893401F43776319E00220B2
:100CF000F8BD06680D2A0AD2376BD21F02EB8202BA
:100D000093409F430B6893401F43376309E0F76AA2
:100D10000D3A02EB820293409F430B6893401F43BE
:100D2000F7620A68072306680A2A0AD3F7680A3AAC
:100D300002EB420293409F438B6893401F43F7604E
:100D400008E0376902EB420293409F438B6893406F
:100D50001F4337610A68102A01D0112A20D1124B93
:100D600002689A4217D193681B0219D4936843F41E
:100D7000000393600968102912D10C490C4A0968D4
:100D8000B1FBF2F101EB8101490000E0491E009145
:100D90000029FBD104E0816A41F020018162012435
:100DA00080F824502046F8BD0024014010000020A7
:100DB00040420F007047806A70470068C06C7047FF
:100DC00070B50446006806684568A90625D5B107D0
:100DD00023D5A16AC90603D4A16A41F40071A162B6
:100DE0008168C1F34241072910D1217B71B9416863
:100DF00021F020014160A06A20F48070A062A06A06
:100E0000C00403D4A06A40F00100A0622046FFF7AE
:100E1000D1FF21686FF01200086028062ED57007F8
:100E20002CD5A06AC00603D4A06A40F40050A0628A
:100E300020688168C1F30231072909D0416849055A
:100E400015D48168C1F34241072910D1217B71B9C2
:100E5000416821F080014160A06A20F48050A062C6
:100E6000A06AC00503D4A06A40F00100A062204639
:100E7000FFF720FF21686FF00C00086068060CD5B2
:100E8000F0070AD0A06A40F48030A062204600F04B
:100E900095F821686FF00100086070BD2DE9F04100
:100EA00004004FF000057FD0A06A002628B9E66252
:100EB00084F82460204600F083F82046FFF740FCC9
:100EC000A16AC90600D420B1A06A40F01000A06257
:100ED0006AE0A16A21F4885141F00201A16233491C
:100EE00023688B42E16904D1B1F5402F01D14FF461
:100EF0000021277B4FF4807C41EA470261680A4366
:100F0000A168614508D0012906D0002194F814E0B9
:100F1000BEF1010F02D00AE06146F7E7C7B1A76A48
:100F200047F02007A762E76A47F00107E7625F68BA
:100F300027F469470F435F60236899681C4F394065
:100F400011439960A16861450BD0012909D00CE0DB
:100F5000DFF860E0A7690EEB47370F4347F4006105
:100F6000E5E7218A0D05A5F580152168CB6A23F4F4
:100F700070032B43CB62216889680F4B1940914263
:100F800008D1E662A16A21F0020141F00101A162EB
:100F9000BDE8F081A06A20F0020040F01000A062DD
:100FA000E06A40F00100E0620120F1E7003C01400E
:100FB000FDF7E1FF00E0FFFFFE0E1FFF704700009E
:100FC00010B586B000210091019102910391006853
:100FD000214988423DD12148816941F400718161F4
:100FE000816901F400710491816941F0100181610E
:100FF000816901F010010491816941F0040181616E
:10100000816901F004010491816941F00801816165
:101010008069032400F0080004900F20CDE900044B
:1010200069460F4800F09CFB1020CDE9000469469A
:101030000C4800F095FB009469460B48019400F0C1
:101040008FFB00221146122000F0FCFC122000F061
:10105000EBFC06B010BD000000240140001002406F
:101060000010014000080140000C01402DE9F84348
:1010700000270D460446009700F078FC8046206863
:101080008168C90508D5A06A40F02000A06284F8F4
:1010900024700120BDE8F8834168C90503D4C06A03
:1010A00010F4700F2AD0022000F0FEFC3B490968C2
:1010B000B1FBF0F62068036939490B424FEA610140
:1010C0004FEAA1121FD1C3684FEA611C13EA0C0F4B
:1010D00019D103690B4225D1C068104222D11420D6
:1010E00023E0681C0AD02DB100F040FCA0EB080002
:1010F000A84203D920680068800725D520680068C9
:101100008007EED52DE003690B4202D1C168114280
:1011100006D0026923490A4206D1C068084203D1B9
:10112000542002E0292000E0FC204643009816E00D
:10113000681C11D02DB100F019FCA0EB0800A842EA
:101140000AD90098B04207D2A06A40F00400A06219
:1011500084F8247003209DE70098401C0090B04262
:10116000E6D321686FF012000860A06A40F40070B6
:10117000A06220688068C0F3424007280CD1207B21
:1011800050B9A06A20F48070A062A06AC00403D4A1
:10119000A06A40F00100A06200207BE71000002060
:1011A000244992244992240070B5044690F8240002
:1011B00001280DD0012084F824002046FFF7ECFA26
:1011C00002004FF0000005D084F82400104670BDE6
:1011D000022070BDA16A40F20123994341F480715D
:1011E000A1621F4D23681F49AB4218D10E6816F447
:1011F000702F14D0A66A46F48016A6620E68760593
:1012000005D5A66A26F4005646F48056A662A66A5C
:10121000F6040AD5E66A26F00606E66206E0A66A45
:1012200026F48016A6625E68E9E7E06284F824008E
:101230006FF00200186020688368C3F34243072BF5
:1012400005D1A84208D1096811F4702F04D0816833
:1012500041F480118160B9E7816841F4A001F9E7A8
:10126000002801400424014010B590F8211000220C
:10127000022905D00421816380F82020012010BDBF
:1012800001680B6823F00E030B6001680B6823F004
:1012900001030B6090F84030C46B012101FA03F3A5
:1012A000636080F8211080F82020104610BD0000F7
:1012B0002DE9F05F90F821100024022903D00421C9
:1012C0008163012485E001680A6822F00E020A6049
:1012D00001680A6822F001020A603F4E3E4FB215D3
:1012E000DFF8F4C0DFF8F090DFF8ECA0DFF8E8B04A
:1012F000DFF8E4E00168783F13011502ACF1640CFB
:10130000A9F15009AAF13C0AABF1280BAEF1140E79
:101310004FF48018B14227D9B9420ED0614512D09E
:1013200049451DD0514518D0594518D0714501D1B6
:10133000424615E0294EB14201D1012210E0274E6C
:101340001436B14201D110220AE0244E2836B142AF
:1013500006D0224A3C32914201D11A4600E02A4688
:101360001E49091F0A602BE0B94213D0614517D00E
:10137000494522D051451DD059451DD0714501D157
:1013800042461AE0B14202D14FF0807215E0134E8E
:10139000B14201D1012210E0104E1436B14201D108
:1013A00010220AE00D4E2836B14206D00B4A3C32DC
:1013B000914201D11A4600E02A46074980394A6025
:1013C000012180F82110002180F82010416B01B12B
:1013D00088472046BDE8F09F800002400804024094
:1013E0002DE9F05FC16B0A6801680B68046C4FF06F
:1013F000040808FA04F8844D844E854FDFF814C2BF
:10140000DFF81492DFF814A2DFF814B2DFF814E268
:1014100018EA020F65D05FEA437862D50A6892063F
:1014200003D40A6822F004020A60DFF8F0814FF466
:101430008062016808F1140813011402414524D99F
:10144000A9420DD0B1420FD0B9421AD0614515D092
:10145000494515D0514501D1120312E0594501D13A
:1014600004220EE0714501D140220AE06D4D143591
:10147000A94206D06B4A2832914201D11A4600E0B7
:1014800022466749091F0A6029E0A94213D0B142E8
:1014900015D0B94220D061451BD049451BD05145DC
:1014A00002D14FF4800217E0414502D14FF0806233
:1014B00012E0594501D104220EE0714501D14022CC
:1014C0000AE0584D1435A94206D0564A28329142B6
:1014D00001D11A4600E022464B4908394A60C16AE8
:1014E00071E04FF0020808FA04F818EA020F70D011
:1014F0005FEA83786DD50A68920606D40A6822F0FE
:101500000A020A60012180F82110DFF810814FF4EF
:101510000072016808F1140813011402414524D92E
:10152000A9420DD0B1420FD0B9421AD0614515D0B1
:10153000494515D0514501D1120312E0594501D159
:1015400002220EE0714501D120220AE0354D14350A
:10155000A94206D0334A2832914201D11A4600E00E
:1015600022462F49091F0A6029E0A94213D0B1423F
:1015700015D0B94220D061451BD049451BD05145FB
:1015800002D14FF4001217E0414502D14FF0007232
:1015900012E0594501D102220EE0714501D120220D
:1015A0000AE0204D1435A94206D01E4A2832914245
:1015B00001D11A4600E02246134908394A60002149
:1015C00080F82010816A00291CD0BDE8F05F084730
:1015D000FFE70825A540154214D01A0712D50A685E
:1015E00022F00E020A6090F84020C36B012101FA3C
:1015F00002F25A60816380F82110002180F82010E7
:10160000016BE0E7BDE8F09F080002401C000240CB
:101610003000024044000240580002406C0002408A
:10162000080402401C04024030B560B11A4B026845
:1016300014219A4209D2194B1344B3FBF1F18900EA
:10164000016417490AE0012030BD134B5B4213448B
:10165000B3FBF1F1890001640F490839C16302212C
:1016600080F82110136843F6F0718B43F0E9011400
:101670002143D0E902452C432143046921434469B5
:1016800021438469214319431160002141630122F0
:1016900042770177084630BD08040240F8FFFDBFDD
:1016A0000000024070B5044690F820000025012893
:1016B0000CD0012084F8200094F821600020012E35
:1016C00006D084F820000225284670BD022070BD97
:1016D000022684F82160A0632068066826F00106CF
:1016E00006602046FFF79EF8E06A0028206801683F
:1016F00002D041F00E0106E021F0040101602068F3
:10170000016841F00A0101602068016841F00101AF
:101710000160D9E770B5044600F028F90546601C61
:1017200002D004480078044400F020F9401BA04295
:10173000FAD370BD04000020402802D101490120E5
:10174000087070471A000020044910B50A68024268
:1017500002D00860FFF7F0FF10BD00001404014044
:101760002DE9F84FDFF8C8910024A9F1040B2346B6
:101770000F2709F1040AABF1040ED1E00125A540C1
:1017800006EA0502AA4276D1DFF8A8C14E68A6EBA8
:101790000C0866452BD00DDC032E34D005DC36B3A7
:1017A000012E19D0022E2FD11BE0112E16D0122E91
:1017B0002AD119E0B8F5881F19D006DCB8F5803FAA
:1017C00015D0B8F5801F1FD111E0B8F5001F0ED05D
:1017D000B8F5041F18D10AE0CB6815E0CB681B1DD3
:1017E00012E0CB6808330FE0CB680C330CE08B6859
:1017F0002BB1012B4FF0080303D0456104E0042313
:1018000002E0056100E00023FF2A01D8064601E05E
:1018100000F104064FEA840501D9A5F12005D6F8A8
:10182000008007FA05FC28EA0C0803FA05F548EAE7
:101830000508C6F800804D68ED0070D53E4DAE69D4
:1018400046F00106AE61AD6924F0030605F001051E
:1018500000953A4D06EB050CDCF80850A607360F4C
:1018600007FA06F825EA0805DFF8D480404503D1D9
:101870004FF0000825E052E0DFF8C880404502D173
:101880004FF001081DE0DFF8C080404502D14FF065
:10189000020816E0DFF8B480404502D14FF003089B
:1018A0000FE0DFF8AC80404502D14FF0040808E0BB
:1018B000DFF8A080404502D14FF0050801E04FF06D
:1018C000060808FA06F848EA0508CCF808804D68CA
:1018D000D9F80060ED024D4601D5164300E096436D
:1018E0002E604D68DAF80060AD02554601D516430A
:1018F00000E096432E604D68DBF80060AD035D4666
:1019000001D5164300E096432E604D68DEF8006076
:10191000ED03754601D5164300E096432E60641C26
:101920000A681646E2407FF429AFBDE8F88F000050
:1019300008040140000011100010024000000140A6
:1019400000080140000C014000100140001401405B
:1019500000180140001C01408068084000D00120B0
:1019600070470AB1016170470904FBE701488068CC
:10197000704700000400002002488168027811448A
:101980008160704704000020074810B5016841F0ED
:1019900010010160032000F075F80F2000F006F838
:1019A00000F024F8002010BD0020024070B50D4D5D
:1019B00004464FF47A712878B1FBF0F00A490968BF
:1019C000B1FBF0F000F0F1FD48B9102C07D2002275
:1019D0002146501E00F036F800206C6070BD0120DA
:1019E00070BD000004000020100000200C4808B565
:1019F000816941F001018161816901F0010100917A
:101A0000C16941F08051C161C06900F0805000900F
:101A10000448416821F0E06141F00071416008BD77
:101A20000010024000000140002809DB00F01F0206
:101A3000012191404009800000F1E020C0F8001130
:101A400070470000F0B40E4B1B680C46C3F3022332
:101A5000C3F10705042D00D90425191D072901D25A
:101A6000002300E0DB1E012606FA05F1491E214095
:101A700099409E40761E16403143F0BC03F0D8B921
:101A80000CED00E0064900F0070208684FF6FF037E
:101A9000184040EA0220034A1043086070470000E3
:101AA0000CED00E00000FA0510B501460020284CBE
:101AB00004292FD00BDC012930D0022929D100F0D4
:101AC0006BF96168C1F38131491C49001FE00829A5
:101AD00020D010291DD161682268D20119D51D4876
:101AE000C1F38342C903805C0AD56168194AC1F316
:101AF0004041921E515C184AB2FBF1F1484301E0AB
:101B0000164948436168490203D440000321B0FBF1
:101B1000F1F010BDBDE8104000F04EB9226AC2F3EA
:101B20000121012903D1920701D5C80310BD022963
:101B300005D1626A920702D549F6404010BD0329DB
:101B4000FCD121688903F9D54FF2244010BD000073
:101B500000100240A457000800127A0000093D005E
:101B60002DE9F84305460078354CC00754D0E069AC
:101B70000026C00008D4E06940F08050E061E069D0
:101B8000012600F0805000902E480168C90512D44B
:101B90000168804641F480710160FFF7E7FE074667
:101BA00005E000BFFFF7E2FEC01B642823D8D8F889
:101BB0000000C005F6D5206A10F4407021D0A98835
:101BC00001F4407181421CD0206A1F49012220F497
:101BD00040700A6000220A602062C00711D0FFF73F
:101BE000C5FE074641F2883808E000BFFFF7BEFE99
:101BF000C11B414502D90320BDE8F883206A800754
:101C0000F4D5206A696820F44070084320621EB150
:101C1000E06920F08050E0612878800705D5606891
:101C2000A96820F44040084360602878C00605D5C4
:101C30006068696920F48000084360600020DBE789
:101C40000010024000700040400442422DE9F0477D
:101C50000F46050061D0434E306800F00700B842DF
:101C600009D2306820F0070038433060306800F057
:101C70000700B84251D128683B4C810712D5400774
:101C800003D5606840F4E06060602878000703D501
:101C9000606840F4605060606068A96820F0F000FF
:101CA000084360602878C00728D06868012810D0F1
:101CB0002168022810D0890700292EDA616821F0F6
:101CC000030101436160FFF751FE804641F288390C
:101CD0000DE021688903EFE78901EDE7FFF746FE94
:101CE000A0EB0801494502D90320BDE8F0876068F0
:101CF000696800F00C00B0EB810FEFD1306800F0A4
:101D00000700B8420BD9306820F007003843306034
:101D1000306800F00700B84201D00120E5E72878DC
:101D2000400705D56068E96820F4E060084360601A
:101D30002878000706D56068296920F4605040EAD9
:101D4000C100606000F038F86168084AC1F303110F
:101D5000515CC8400649086006480068FFF726FE47
:101D60000020C2E70020024000100240B4570008E3
:101D70001000002008000020044805490068496858
:101D8000044AC1F30221515CC84070471000002092
:101D900000100240C457000804480549006849681B
:101DA000044AC1F3C221515CC840704710000020B2
:101DB00000100240C45700080E4A51680E4801F056
:101DC0000C03042B11D0082B0FD10C48C1F3834313
:101DD000C903C05C0AD55168084AC1F34041921E4C
:101DE000515C054A5043B0FBF1F070470449484349
:101DF000704700000010024000127A00925700085D
:101E000000093D002DE9F84F040070D02078C04D46
:101E1000C00749D06868C0F38100012807D068680E
:101E2000C0F38100022809D16868C00306D528687C
:101E3000800339D560680028E7D035E06068B0F5E8
:101E4000803F0BD010B1B0F5A02F11D0286820F43E
:101E500080302860286820F4802002E0286840F460
:101E600080302860606890B1FFF780FD06460AE088
:101E7000286840F480202860F0E700BFFFF776FD77
:101E8000801B642873D828688003F7D50CE0FFF71F
:101E90006DFD064605E000BFFFF768FD801B642866
:101EA000F0D828688003F7D420789A4E80074FF046
:101EB00001094FF0000839D5686810F00C0F07D001
:101EC0006868C0F38100022809D16868C00306D49D
:101ED0002868800714D52069012808D110E02069FE
:101EE000B0B1C6F80090FFF741FD074605E00AE1F2
:101EF000FFF73CFDC01B0228C4D828688007F7D52F
:101F00002868616920F0F80040EAC10028600DE00F
:101F1000C6F80080FFF72AFD074604E0FFF726FD1C
:101F2000C01B022823D828688007F7D42078000730
:101F30002CD57948A169D9B1C0F80090FFF716FDFA
:101F4000074604E0FFF712FDC01B02280FD8686A9D
:101F50008007F7D571484FF4FA510068B0FBF1F0F3
:101F6000009000BF0098411E0091FAD20EE080E080
:101F7000C0F80080FFF7FAFC074604E0FFF7F6FC24
:101F8000C01B022875D8686A8007F7D420784007FC
:101F900060D5E8690027C00008D4E86940F08050A7
:101FA000E861E869012700F0805000905C48016812
:101FB000C90513D40168834641F480710160FFF7BD
:101FC000D5FC824606E000BFFFF7D0FCA0EB0A007C
:101FD00064284ED8DBF80000C005F5D5E06801287C
:101FE0000AD008B1052813D0286A20F00100286221
:101FF000286A20F0040002E0286A40F0010028620C
:10200000E06841F2883B98B1FFF7B0FC82460BE0F4
:10201000286A40F004002862EEE700BFFFF7A6FC44
:10202000A0EB0A0159455AD8286A8007F6D50CE07A
:10203000FFF79CFC824605E0FFF798FCA0EB0A0145
:1020400059454CD8286A8007F6D41FB1E86920F0BA
:102050008050E861E06988B36968C1F381010229B1
:1020600044D00228C6F8608004D0FFF77FFC044605
:1020700038E034E0FFF77AFC074604E0FFF776FC2F
:10208000C01B02282BD828688001F7D4206AB0F53D
:10209000803F05D16868A16820F40030084368607B
:1020A000D4E908010843696821F4741108436860A1
:1020B000C6F86090FFF75AFC044606E025E000BF32
:1020C000FFF754FC001B022809D828688001F7D5C7
:1020D0001BE000BFFFF74AFC001B022802D90320C7
:1020E000BDE8F88F28688001F4D40EE00128F7D00D
:1020F0006868226A00F48031914204D1616A00F478
:102100007010884201D00120EAE70020E8E70000D3
:1021100000100240000042428004424210000020B1
:10212000007000407047000038B5044600684268FF
:102130008168C9434B0606D5CB0704D1D3435B0660
:1021400001D4216C05E08B0708D4D3431B0605D4CA
:10215000616C01B02046BDE8304008478B0601D5D0
:102160004B0646D4D3439B0643D44B060AD494F87B
:102170005130032B3ED0636D43F004036365C368A5
:1021800083680093890609D4616D41F0010161659E
:1021900081680091016821F040010160606D0028B4
:1021A00027D02068416821F0E0014160012084F8D7
:1021B0005100900722D02068416821F0030141605E
:1021C000104DE06C40B14563E06CFFF771F818B159
:1021D000606D40F040006065A06C002809D0456348
:1021E000A06CFFF765F8002803D0606D40F0400058
:1021F000606538BDC1688068009038BD2046FFF733
:1022000091FF38BD7546000870B5040009D0606ABA
:10221000002540B125616561A56294F8510040B187
:102220000CE0012070BD6068B0F5827FF4D0E561FC
:10223000F2E784F85050204600F040F8022084F87D
:1022400051002068016821F040010160A0882189C7
:1022500000F4827001F404410843A18901F4006193
:102260000843217C01F002010843217D01F00101B6
:102270000843218B01F400710843217F01F03801EC
:10228000084394F8201001F080010843218D01F4E7
:102290000051084321680860A069042101EA104048
:1022A000216848602068C16921F40061C1616565E9
:1022B000012084F85100002070BD000070B586B088
:1022C00000250646009501950295039500681E4974
:1022D000884236D11D49886940F4805088618869F8
:1022E00000F480500490886940F004008861886997
:1022F000694600F004000490A020009002200190A4
:10230000032003901248FFF72BFA134C114820606A
:102310001020C4E901058020C4E903056561A561B9
:102320002046E561FFF780F908B1FEF794FAB4643E
:102330000022114623206662FFF784FB2320FFF76B
:1023400073FB06B070BD0000003001400010024079
:102350000008014030000240B40000202DE9F84F91
:10236000984616468A460446FFF700FB814694F8D5
:10237000510001281ED1BAF1000F73D0002E71D088
:1023800094F85000012815D0012784F850700320DC
:1023900084F8510000256565C4F830A0A686E6865D
:1023A000A563A587E58765642564A068B0F5004F3F
:1023B00003D00CE00220BDE8F88F2068016821F00E
:1023C000400101602068016841F48041016020689B
:1023D0000168490603D4016841F040010160E068EA
:1023E000B0F5006F606803D048B3012E27D047E0F6
:1023F00008B1012E1FD1206B21680088C86006E05B
:1024000020688168890709D5216B0988C160206B24
:10241000801C2063E08E401EE0860CE0FFF7A6FAE9
:10242000A0EB0901414503D3B8F1FF3F03D035E0EC
:10243000B8F1000F32D0E08E0028E1D123E0206B0C
:1024400021680078087306E02068816889070AD54A
:10245000216B09780173206B401C2063E08E401EC5
:10246000E0860DE02BE0FFF781FAA0EB0901414582
:1024700003D3B8F1FF3F03D010E0B8F1000F0DD047
:10248000E08E0028E0D14A464146204602F042F95B
:1024900008B120206065A06830B109E084F851706F
:1024A00084F85050032086E72068C1688068009057
:1024B00084F8517004F8505F60680028F3D0012060
:1024C00079E7000070B5044690F8510001281CD14E
:1024D000C9B1C2B194F85000012816D0012084F887
:1024E0005000032084F85100002565652163A28611
:1024F000E286A56365642564A587E587A068B0F5D5
:10250000004F04D00DE0012070BD022070BD206896
:10251000016821F0400101602068016841F48041B8
:102520000160A16C1748C862A16C17488862A16C51
:1025300016480863A06C4563E38E2268216B0C3259
:10254000A06CFFF7AFF830B1606D40F0100060652F
:1025500084F85050D7E720680168490603D4016821
:1025600041F04001016084F850502068416841F01A
:10257000200141602068416841F002014160002073
:1025800070BD0000A7460008B14600088546000857
:1025900000680349884202D102490120087070474F
:1025A0000030014022000020704710B5401EB0F1FD
:1025B000807F01D3012010BD4FF0E02460610F2126
:1025C000601702F035FC0020A06107202061002088
:1025D00010BD70477047000070B590F83C20012A8C
:1025E0002CD0012480F83C40022280F83D20036872
:1025F0005A689D6822F070060A6832435A60104B90
:1026000002689A420ED00F4B9A420BD0B2F1804F23
:1026100008D00D4B9A4205D00C4B9A4202D00C4B7D
:102620009A4204D1496825F080031943916080F8EB
:102630003D40002180F83C10084670BD022070BD6E
:10264000002C01400034014000040040000800401C
:10265000000C004010B5040003D094F83D0010B108
:1026600007E0012010BD002084F83C00204600F067
:102670001FF8022084F83D00211D206802F014F9A3
:10268000012084F8460084F83E0084F83F0084F876
:10269000400084F8410084F8420084F8430084F844
:1026A000440084F8450084F83D00002010BD00007F
:1026B00008B5234A01682348914208D1C16941F015
:1026C0000401C161C06900F00400009008BD1E4A09
:1026D00091420ED1C16941F00801C161C069002277
:1026E00000F00800009011463220FFF7ABF93220CD
:1026F00022E0164A91420ED1C16941F01001C16138
:10270000C069002200F01000009011463620FFF74B
:1027100099F9362010E00E4A9142D7D1C16941F0B3
:102720002001C161C069002200F020000090114624
:102730003720FFF787F93720BDE80840FFF774B965
:102740000008004000100240000C00400010004053
:102750000014004090F83D10012901D0012070477D
:10276000022180F83D100168CA6842F00102CA6087
:1027700000680E4988420ED00D4988420BD0B0F156
:10278000804F08D00B49884205D00B49884202D0BF
:102790000A49884204D1816801F00701062903D063
:1027A000016841F00101016000207047002C0140E8
:1027B000003401400004004000080040000C0040CC
:1027C00070B5044690F83C000025012817D001267A
:1027D00084F83C60022084F83D002068826822F082
:1027E000770222F47F4282600868502838D00DDCDE
:1027F00020284FD005DC90B3102811D14AE00220E8
:1028000070BD302846D040280AD13BE060282FD048
:1028100070280DD0B0F5805F03D0B0F5005F12D006
:10282000012584F83D60002084F83C00284670BDF6
:10283000CB68D1E90121206802F084F82068816822
:1028400041F0770109E0CB68D1E90121206802F06D
:1028500079F82068816841F480418160E1E719E0FE
:10286000CA684968206802F041F95021206806E0F2
:10287000CA684968206802F04AF96021206802F0BD
:102880006BF8CEE7CA684968206802F02FF940214A
:102890002068F4E7226801461046F0E770472DE90A
:1028A000F04104460068C66805694FF00007A907B3
:1028B00013D5B10711D5F91E0161012020772068D9
:1028C00080698007204602D0FFF7E8FF04E000F0AF
:1028D000A5F8204600F037F92777680716D5700766
:1028E00014D521686FF00400086102202077206869
:1028F000806910F4407F204602D0FFF7CFFF04E04C
:1029000000F08CF8204600F01EF92777280715D52F
:10291000300713D521686FF0080008610420207784
:102920002068C0698007204602D0FFF7B7FF04E0A7
:1029300000F074F8204600F006F92777E80616D56F
:10294000F00614D521686FF0100008610820207788
:102950002068C06910F4407F204602D0FFF79EFF38
:1029600004E000F05BF8204600F0EDF82777E80778
:1029700008D0F00706D021686FF0010008612046FA
:1029800000F0E2F8280608D5300606D521686FF079
:10299000800008612046FFF71CFE680608D5700617
:1029A00006D521686FF040000861204600F01EF94E
:1029B000A8060AD5B00608D521686FF02000086186
:1029C0002046BDE8F041FFF705BEBDE8F0810000FC
:1029D00000B585B00021009101910291039100683A
:1029E0000B49884212D10B48816941F0080181618D
:1029F0008069694600F0080004904FF44070009030
:102A00000220019003900448FEF7AAFE05B000BD25
:102A10000008004000100240000C0140704770B5F3
:102A2000044690F83C0000260D4601280FD00120F6
:102A300084F83C006AB1042A1DD0082A2FD00C2A41
:102A40003FD00126002084F83C00304670BD0220B3
:102A500070BD206801F088FF2068816941F008019D
:102A600081612068816921F00401816120688169A8
:102A70002A69114311E0206801F0A6FF20688169EE
:102A800041F4006181612068816921F48061816184
:102A9000206881692A6941EA02218161D2E72068C0
:102AA00001F0C8FF2068C16941F00801C1612068D8
:102AB000C16921F00401C1612068C1692A6911431B
:102AC00011E0206801F0EAFF2068C16941F400616B
:102AD000C1612068C16921F48061C1612068C16958
:102AE0002A6941EA0221C161ACE710B5040003D0B4
:102AF00094F83D0010B107E0012010BD002084F8DB
:102B00003C00204600F01EF8022084F83D00211D04
:102B1000206801F0C9FE012084F8460084F83E00D8
:102B200084F83F0084F8400084F8410084F84200B3
:102B300084F8430084F8440084F8450084F83D009C
:102B4000002010BD7047704730B5224A016801234C
:102B500014680022A14229D11F4C204925783DB993
:102B60000D786D1CEDB20D70052D01D123700A702A
:102B70001B4CA578012D01D125782DB14A70194C37
:102B800094F86B504DB111E04D786D1CEDB24D7065
:102B90001E2DF4D14A702370F1E78D786D1CEDB2D3
:102BA0008D70642D02D18A7084F86B3009490068F9
:102BB0004831096888420BD10B488178002907D039
:102BC0000178491CC9B20170082901D38270C37011
:102BD00030BD00004001002018000020000000204F
:102BE00014000020240A002038030020704770479A
:102BF00070470000F8B5016804460868CA684B6968
:102C000010F00F0F4FF0000559D003F0010602F449
:102C10009077374365D0C10705D0D10503D5616CE6
:102C200041F001016164410705D5D90703D0616C0A
:102C300041F002016164810705D5D90703D0616CB9
:102C400041F004016164010707D502F0200131431E
:102C500003D0616C41F008016164616C00293AD0D5
:102C6000800604D5900602D5204601F098FF206822
:102C70004069616CC0F38010090700D460B320463E
:102C800001F066FF20684069400621D520681430B5
:102C900050E8001F21F0400140E80012002AF5D161
:102CA000E06BA8B16D494163E06BFEF701FB0028C2
:102CB00011D0E06B416B01B0BDE8F04008478306DE
:102CC0000FD593060DD52046BDE8F84001F067BF4B
:102CD0002046FFF78DFFF8BD2046FFF789FF6564AA
:102CE000F8BD266B2023012E7CD1C6067AD5D606E8
:102CF00078D508684868009048694FF00206400699
:102D000040D5E16B086840680004000CE8D0A28D53
:102D10008242E5D9E085886920282DD020680C30D2
:102D200050E8001F21F4807140E80012002AF5D11C
:102D30002068143050E8001F21F0010140E8001223
:102D4000002AF5D12068143050E8001F21F040011E
:102D500040E80012002AF5D184F84230256320684B
:102D60000C3050E8001F21F0100140E80012002A4A
:102D7000F5D1E06BFEF778FA6663A08DE18D401A1D
:102D800081B22AE0A08DE18D401A81B2E08D002849
:102D9000A6D00029A4D022680C3252E8000F20F4FB
:102DA000907042E80007002FF5D12068143050E8F9
:102DB000002F22F0010240E80027002FF5D184F80F
:102DC0004230256320680C3050E8002F22F01002BA
:102DD00040E80023002BF5D166632046FFF707FF8C
:102DE000F8BDFFE705062BD5150629D594F8410057
:102DF0002128F5D1A068B0F5805F01D12069B0B17C
:102E0000206A411C2162216800784860E08C401EE5
:102E10000004000CE084E3D12068C16821F0800147
:102E2000C1602068C16841F04001C160D8E7206AF4
:102E30000088C0F308004860206A801C2062E5E733
:102E40004006CDD55006CBD5CA68204622F04002B8
:102E5000CA6084F8413000F07FF9C1E7414B0008B7
:102E600070B5040004D094F84100002510B106E0CC
:102E7000012070BD84F84050204600F023F8242043
:102E800084F841002068C16821F40051C1602046E7
:102E900001F0E6FE2068016921F49041016120689B
:102EA000416921F02A0141612068C16841F4005163
:102EB000C1606564202084F8410084F842006563A5
:102EC000002070BDF0B585B00024009401940294F8
:102ED000039403685848574E051502210322C7146E
:102EE000B34225D1C36943F40023C361C36903F42A
:102EF00000230493836943F0100383618069CDE963
:102F0000005100F01000CDE903204C4D69462846E1
:102F1000FEF726FCCDE90074694628460294FEF7C8
:102F20001FFC002211463420FEF78CFD342029E0DE
:102F3000DFF80CC1434E634528D1836943F48043D5
:102F40008361836903F480430493836943F004033A
:102F500083618069039200F0040004907015CDE94C
:102F6000000169463046FEF7FBFBCDE90054694697
:102F700030460294FEF7F4FB002211462520FEF7AE
:102F800061FD2520FEF750FD05B0F0BDDFF8B8C0AB
:102F9000634526D1C36943F40033C361C36903F4B5
:102FA00000330493836943F00403836180690392CF
:102FB00000F0040004900420CDE900016946304689
:102FC000FEF7CEFB0820CDE90004694630460294A6
:102FD000FEF7C6FB002211462620FEF733FD262011
:102FE000D0E71A4EB342CFD1C36943F48023C36103
:102FF000C36903F480230493836943F00803836166
:103000008069CDE9005100F00800CDE90320104DA2
:1030100069462846FEF7A4FBCDE9007469462846B8
:103020000294FEF79DFB002211462720FEF70AFDC1
:103030002720A7E7004C004000100240001001408C
:1030400000380140000801400044004000480040B2
:10305000000C014090F84230202B01D00220704734
:1030600021B11AB10023036301F056BE012070475D
:1030700000680E49884218D10D48C178012914D042
:103080000C49096849684378021D99544178002326
:10309000491CC9B241700370012901D10123837019
:1030A000114401220348FFF7D5BF704700380140A3
:1030B00038030020600200202DE9F843044690F810
:1030C0004100984616460D46202802D00220BDE851
:1030D000F88385B17EB100206064212084F841002E
:1030E000FEF744FCA6848146E684A0682027B0F55C
:1030F000805F02D003E00120E9E7206910B12E468D
:1031000000250EE000260CE08021204601F01FFE85
:10311000A8B9C6B116F8010B21684860E08C401EC2
:10312000E084E08C4B464FF00002CDF80080002890
:10313000EAD14FF04001204601F009FE40B184F889
:1031400041700320C3E735F8020BC0F30800E3E742
:1031500084F841700020BAE77047FEE738B52F4C7D
:103160002078012846D1607868B100202C49607031
:10317000E27809880A2A3DD2DFE802F03C07111DF7
:10318000293C3C333F470120F0E728B10091C6239A
:103190004022A621202008E002F0FAF82AE038B107
:1031A0000091C5239722A521872000F04DFB21E047
:1031B00002F04CF81EE038B1B22300914FF4947243
:1031C000A2214FF48870F0E701F088FF12E0002898
:1031D000FAD0CE2300914FF49072BE214FF48C7040
:1031E000E3E728B100915923432241211F20DCE766
:1031F00002F02AFA0020207038BD0028F8D0009193
:1032000059238D2241216920CFE70028F0D0009179
:103210005923D7224121B320C7E700001400002022
:10322000260000202DE9F05FDFF8B880642498F8CC
:103230001D00012845D101F083FF0A2001F0D0FFD5
:10324000DFF8A4A0294E4FF480794FF4007B4D465F
:1032500049465046FEF780FB074659463046FEF782
:103260007BFB47EA400729463046FEF775FB47EAF5
:10327000800580213046FEF76FFB45EAC0054021FE
:103280003046FEF769FB45EA0010C5B2641EE4B2A1
:103290000A2001F0A5FF0F2D15D0B4B198F8020057
:1032A0004446C0F1010088F8020001F0FDFEA2785A
:1032B0000021022002F02EFA01F034FF0C49002018
:1032C0000870BDE8F09F002CC1D10A48012181702F
:1032D0000721C17001F026FF4FF4FA7001F080FF62
:1032E000EAE700000404002000080140001001404B
:1032F000180000201400002070B5324C607F0128B7
:103300005ED101F01DFF0A2001F06AFF2E48002562
:10331000817849B1C0780A284ED2DFE800F04D111B
:10332000051A224D4D2E3642207830B1401EC2B2D1
:1033300022700021012002F0EDF901F087FF3BE04F
:1033400000212A466570084602F0E4F902F020F8F0
:1033500032E0207914280DD9401FC1B22171E278E2
:1033600005E0E07830B1401EC2B2E270217903205E
:1033700002F0D0F901F0B2FE1EE0E079142819D96C
:10338000401EC2B2E271217A06E0207A142811D9D7
:10339000401EC1B22172E2795FF0040002F0BAF976
:1033A00008E0607A142805D9401EC2B2002162727A
:1033B0000520F3E702F048F901F0B4FE0348057078
:1033C00070BD00000404002014000020180000203C
:1033D0002DE9F05F642401F0B3FE0A2001F000FF44
:1033E000DFF80C814FF001094FF0000A98F81D003A
:1033F000012843D088F81D9001220021072002F007
:1034000089F9FDF72BFA00BF01F08CFE394981F8EC
:1034100000A0BDE8F09F5D4659463748FEF79CFA8C
:1034200007464FF400713046FEF796FA47EA400728
:1034300029463046FEF790FA47EA8005802130465B
:10344000FEF78AFA45EAC00540213046FEF784FAC5
:1034500045EA0010C5B2641EE4B20A2001F0C0FEC5
:103460001B2D0FD084B1254CE0780A283AD2DFE832
:1034700000F0391C20242839392B2F344FF4807B5D
:103480001F4EC8E7002CC6D188F81DA0002000F010
:103490002DF900221146072002F03CF901F042FE0E
:1034A0004FF4FA7001F09CFEAEE701F071FF0220CC
:1034B00011E001F0CBFE03200DE001F00FFE04202F
:1034C00009E001F00BFE0AE002F0BEF8082002E07D
:1034D00002F0BAF80920E07096E702F0B5F801F0C2
:1034E000FDFE91E7401CE07084F802908CE700003C
:1034F00004040020180000200008014014000020EF
:103500000010014010B5324C607F01285FD101F0FE
:1035100017FE0A2001F064FE2E48817849B1C07878
:103520000A284FD2DFE800F04E12051B234E4E3022
:1035300038432078062806D2401CC2B222700021EF
:10354000012002F0E7F801F081FE3BE001220021BA
:103550006270084602F0DEF801F01AFF32E02079CE
:1035600064280ED2401DC1B22171E27806E0E078F5
:10357000062806D2401CC2B2E2702179032002F074
:10358000C9F801F0ABFD1DE0E079782818D2401CA5
:10359000C2B2E271217A06E0207A782810D2401C6B
:1035A000C1B22172E279042002F0B4F808E0607A36
:1035B000782805D2401CC2B2002162720520F3E7D0
:1035C00002F042F801F0AEFD03490020087010BD82
:1035D0000404002014000020180000202DE9F05FF2
:1035E000DFF8BC80642498F81D0001283BD101F06D
:1035F000A7FD0A2001F0F4FDDFF8A8A02A4E4FF441
:1036000080794FF4007B4D4649465046FEF7A4F9B9
:10361000074659463046FEF79FF947EA40072946D4
:103620003046FEF799F947EA800580213046FEF7DB
:1036300093F945EAC00540213046FEF78DF945EA89
:103640000010C5B2641EE4B20A2001F0C9FD1E2DAF
:103650000BD064B1FDF702F901F040FE01F062FD0C
:10366000124900200870BDE8F09F002CCBD198F8DB
:103670000510C1F1010111F0FF0288F805200DD0FD
:1036800098F80610062002F045F801F0C3FF01F09B
:1036900049FD4FF4FA7001F0A3FDDFE70021F1E7E7
:1036A0000404002000080140001001401800002020
:1036B0002DE9F04104461D4616460F462A2000F02B
:1036C00045FB204600F05EFB304600F05BFB2B2004
:1036D00000F03CFB384600F055FB284600F052FB5A
:1036E000BDE8F0412C2000F031BB000070B5040AA9
:1036F000C5B20021EF2340F23F120846FFF7D8FF82
:103700000E4900204FF4407201F8104001EB4003D5
:10371000401C80B25D709042F6D3012240210848DF
:10372000FEF71FF900244FF4C0652946034800F056
:10373000ADF9641CA4B2642CF7D370BD240400203E
:10374000000801402DE9FE4F4FF00008141A4746CB
:10375000454699421FD1FFF7ABFF0C980C9A010A1E
:103760003148D2B206E000BF00F8151000EB450367
:103770006D1C5A70AC42F7D8012240212B48FEF74D
:10378000F0F84FF6FF7000EA440103B02648BDE8A8
:10379000F04F00F07BB9CDE900105E1A4FF0FF301A
:1037A000002C02DD4FF0010102E003D14FF00001D7
:1037B0008B4602E08346C4F10004002E02DD4FF088
:1037C000010002E003D14FF00000824602E0824691
:1037D000C6F10006B44201DD254600E03546681C0E
:1037E0004FF0000902901AE000980C9A81B20198FB
:1037F00080B200F01DF8A0443744A84505DD0199CA
:10380000A8EB050801EB0B000190AF4203DD009827
:103810007F1B5044009009F101001FFA80F90299C2
:103820008945E1DDBDE8FE8F240400200008014049
:1038300010B514460B460246FFF73AFF2046BDE896
:10384000104000F09FBA00002DE9F047141A5F1AEB
:10385000641C7F1C7C43002564004FF4C068089EF4
:10386000444502D9A4F5C0654446FFF721FF370A55
:10387000DFF84C90DFF84CA0F6B20020494606E095
:1038800001F8107001EB4002401C567080B2B0EBA2
:10389000540FF5D3012240215046FEF762F8A1B241
:1038A000074800F0F3F8002D07D0454502D9A5F5EB
:1038B000C065E2E72C460025DFE7BDE8F0870000A1
:1038C000240400200008014010B56B4C0022102198
:1038D0002046FEF746F80A20FDF71CFF01221021C2
:1038E0002046FEF73EF83220FDF714FF112000F0CD
:1038F0002DFA7820FDF70EFFB22000F027FA0C20F9
:1039000000F032FA0C2000F02FFA002000F02CFA20
:10391000332000F029FA332000F026FA362000F098
:1039200015FAA02000F020FA3A2000F00FFA052046
:1039300000F01AFAB72000F009FA562000F014FA45
:10394000BB2000F003FA142000F00EFAC02000F0B3
:10395000FDF92C2000F008FAC22000F0F7F9012050
:1039600000F002FAC32000F0F1F90F2000F0FCF99A
:10397000C62000F0EBF90F2000F0F6F9D02000F09F
:10398000E5F9A42000F0F0F9A12000F0EDF9D6202F
:1039900000F0DCF9A12000F0E7F9E02000F0D6F912
:1039A000F02000F0E1F91B2000F0DEF91B2000F010
:1039B000DBF9082000F0D8F9062000F0D5F9122034
:1039C00000F0D2F9352000F0CFF9432000F0CCF917
:1039D000492000F0C9F9362000F0C6F9102000F0A7
:1039E000C3F9122000F0C0F92C2000F0BDF93320FB
:1039F00000F0BAF9E12000F0A9F9F02000F0B4F9E4
:103A0000122000F0B1F91C2000F0AEF90C2000F0FB
:103A1000ABF9082000F0A8F9052000F0A5F9342042
:103A200000F0A2F9332000F09FF9492000F09CF942
:103A3000372000F099F9132000F096F9142000F0D7
:103A400093F92E2000F090F9342000F08DF9212018
:103A500000F07CF9292000F079F92C2000F076F9AB
:103A60000021EF2340F23F120846FFF721FEBDE898
:103A700010400020FFF73ABE00100140024601202E
:103A800000E05043491EC9B2FBD2704700F0E2BDCE
:103A90002DE9F84F203AD6B21C46DDE90A984FF4DA
:103AA000A072A2EB5402824254D3C4F1F0028A42C3
:103AB00050DB0A19521E93B200EB5402521E92B20E
:103AC000FFF7F6FD102C17D0202C15D00C2C43D06E
:103AD000182C3FD1364906EB46004FF0300B00243E
:103AE00001EB001AE0071AF8046051D00427002502
:103AF00030064FD548464EE0600700D0012000EB6D
:103B0000D4006108484300F0FF0A2A48002500EB72
:103B1000061B00F5BE5000EBC610009018E0102CFC
:103B200008D0202C16D10098465D0027300604D519
:103B3000484603E01BF80560F7E7404600F022F92D
:103B400070067F1C060EFFB2082FEFD36D1CEDB27E
:103B50005545E4D3BDE8F88F174806EB46014FF012
:103B60000C0A002400EB810700253E5D300601D5DC
:103B7000484600E0404600F005F970066D1C060E50
:103B8000EDB2062DF2D3641CE4B25445ECD3E1E768
:103B90000827ACE7404600F0F5F870066D1C060EED
:103BA000EDB2BD42A4D3641CE4B25C459AD3D1E724
:103BB000E6D70008F6D1000882CD00082DE9FF4FB6
:103BC00083B00026DDE911A9DDF840B01D4680462E
:103BD00034464FEA5B0726E0281B401EC1B20A208C
:103BE000FFF74CFF0599B1FBF0F00A21B0FBF1F2B1
:103BF00001FB120026B9691E8C4201DA38B1012698
:103C00003030C2B207FB048080B25B4604E007FBA1
:103C1000048080B25B462022CDE900A90499FFF719
:103C200037FF641CE4B2AC42D6D307B0BDE8F08FD6
:103C30002DE9FC5F044600F0FF0910190D46DDE98F
:103C40000CA61FFA80F8581987B2DDF83CB013E0D3
:103C5000444503D305EB0A004C4685B2BD4210D261
:103C60000E99CDE9001B534629462046FFF710FF69
:103C700004EB5A0084B2761C3278A2F120005E2850
:103C8000E6D9BDE8FC9F000070B50244DDE90454AC
:103C9000B2F5A07F15D80B44F02B12D85B1E521E34
:103CA0009BB292B2FFF704FD012240210548FDF7C7
:103CB00058FE2846214600F0D5FCBDE8704001F0D2
:103CC0001FBD70BD000801402DE9F04F87B082464E
:103CD000DDE911650124934689460020DDF8408026
:103CE00005E000BF04EB84014C00401CC0B29842C8
:103CF000F8D31046FCF7E2FB07462046FCF7D9FB59
:103D000004463846FCF7D5FB5946FCF7B8FA21467D
:103D1000FCF7B8FAFCF7D2FB03463A4609A104A81F
:103D200001F072F801AF04A9CDF8008087E86200C5
:103D30000C23122249465046FFF77AFF07B0BDE830
:103D4000F08F0000256C642E256C640001B5002204
:103D500040210448FDF705FE01216846FFF796FE65
:103D600008BD00000008014001B5012240210448BF
:103D7000FDF7F7FD01216846FFF788FE08BD00004A
:103D80000008014008B500210091010A8DF80010DB
:103D90008DF80100012240210348FDF7E2FD0221D8
:103DA0006846FFF773FE08BD0008014030B50346C2
:103DB0004FF6FF704AF201041A7850400022C507FE
:103DC00002D084EA500000E04008521CD2B2082A17
:103DD000F5D3491E5B1C11F0FF01EDD130BD000091
:103DE000FEB50025274800950195254902950160FB
:103DF00089158160057301240475052606614FF459
:103E000060214560C0E90641FDF748F808B1FCF7BC
:103E100022FD0427009769461A48CDE90145FCF7C1
:103E20004BFF08B1FCF717FD0B200090022001901A
:103E300069461448FCF740FF08B1FCF70CFD0C2064
:103E400000900320019069460E48FCF735FF08B149
:103E5000FCF701FD0D20CDE9000769460948FCF794
:103E60002BFF08B1FCF7F7FC0A20CDE900066946F4
:103E70000448FCF721FF002801D0FCF7ECFCFEBD54
:103E8000002401402C000020094808B5416941F098
:103E9000010141614069002200F0010000901146DB
:103EA0000D20FDF7CFFDBDE808400D20FDF7BCBD9E
:103EB000001002402DE9F04F85B0002446480094E0
:103EC000019402940394816941F010018161816938
:103ED00001F010010491816941F020018161816943
:103EE00001F020010491816941F00401816181693F
:103EF00001F004010491816941F008018161806948
:103F0000DFF8D89000F0080049F64205049000223E
:103F100029464846FDF725FDDFF8C4A041F23007E9
:103F2000002239465046FDF71CFD4FF23C080022A6
:103F300041462C48FDF715FDDFF8ACB00022042106
:103F40005846FDF70EFD0095022601250396CDE9A2
:103F5000015469464846FDF703FC00970396CDE9F6
:103F6000015469465046FDF7FBFBCDF800800396EF
:103F7000CDE9015469461B48FDF7F2FB4FF4707020
:103F8000CDE90004694650460294FDF7E9FB28029A
:103F9000CDE90004694648460294FDF7E1FB0420A0
:103FA000CDE90005CDE9024669465846FDF7D8FB44
:103FB000402000900D48CDE9010469460948FDF70D
:103FC000CFFB002211461720FDF73CFD1720FDF71F
:103FD0002BFD05B0BDE8F08F001002400008014045
:103FE00000100140000C01400014014000001110BD
:103FF000104810B50E4901604FF4827141600021F4
:1040000002228160C0E903121202C0E905120822EF
:10401000C0E90721416281620A21C162FEF7F4F81A
:10402000002803D0BDE81040FCF715BC10BD00000F
:10403000003001405C00002030B58DB000240794B2
:10404000089409940A940B941C2168460C94FCF77C
:10405000B6F8284D264828604720C5E9010440F2FB
:10406000E730C5E903042846AC61FEF7F3FA08B16E
:10407000FCF7F1FB4FF48050079007A91D48FEF7AD
:104080009FFB08B1FCF7E7FB1A48FEF72EFD08B1CD
:10409000FCF7E1FB0B940BA916480C94FEF79CFA75
:1040A00008B1FCF7D8FB6020CDE900040294082297
:1040B000694610480494FEF7B2FC08B1FCF7CBFB4C
:1040C0002868C16921F00801C1610C2269460948CC
:1040D000FEF7A5FC08B1FCF7BEFB2868C16921F416
:1040E0000061C1610348FEF773FC0DB030BD0000F4
:1040F00000080040F800002010B586B000241748E2
:10410000009401940294039404941349059401606B
:104110004721C0E9011442F20F71C0E90314846120
:10412000FEF798FA08B1FCF796FB4FF48050009028
:1041300069460A48FEF744FB08B1FCF78CFB04947F
:1041400004A906480594FEF747FA002801D0FCF7B9
:1041500082FB06B010BD0000000C004040010020B2
:104160001CB500240E4800940C49019401604721BD
:10417000C0E9011440F2E7318461C160FEF76AFAD8
:1041800008B1FCF768FB0094694605480194FEF706
:1041900023FA002801D0FCF75EFB1CBD0010004094
:1041A000880100201CB500240E4800940C4901949D
:1041B00001604721C0E9011409218461C160FEF753
:1041C00049FA08B1FCF747FB009469460548019499
:1041D000FEF702FA002801D0FCF73DFB1CBD0000F1
:1041E00000140040D00100200C4810B50A490160BD
:1041F0004FF4E1314160002181600C22C160C0E9CF
:1042000004128161C161FEF72BFE002803D0BDE8D6
:104210001040FCF720BB10BD004C004018020020ED
:104220000C4810B50A4901604FF4E13141600021AA
:1042300081600C22C160C0E904128161C161FEF796
:104240000FFE002803D0BDE81040FCF704BB10BDF2
:1042500000380140600200200C4810B50A49016096
:104260004FF4E1314160002181600C22C160C0E95E
:1042700004128161C161FEF7F3FD002803D0BDE89F
:104280001040FCF7E8BA10BD00440040A80200202E
:104290000C4810B50A4901604FF4E131416000213A
:1042A00081600C22C160C0E904128161C161FEF726
:1042B000D7FD002803D0BDE81040FCF7CCBA10BDF4
:1042C00000480040F0020020FEE7000070B5124CEC
:1042D000E07801281ED10025E5706078801EC1B20B
:1042E000201DFFF763FD01466278A01C1044008882
:1042F00040BA81420ED1207935280BD1607903284C
:1043000002D0042805D102E000F008F801E000F036
:104310003FF8657070BD00003803002030B5032100
:10432000194A1A480023072B24D2DFE803F00408B7
:104330000C10161C20005418647944701AE05418AC
:104340006479047016E054186479847012E054188B
:10435000257905716479C4700CE0541825790572CB
:104360006479C47106E054186479447202E0541808
:1043700064794471891C5B1C9BB2C9B2072BD2D3F0
:104380000121017730BD0000380300200404002023
:104390002DE9F05F0325374EDFF8DC80DFF8DCA085
:1043A000374CDFF8E0B000274FF40009062F59D250
:1043B000DFE807F003090D132E3E70190179E17251
:1043C0004079A0724EE07019407920734AE070196C
:1043D0000179A1734079607344E07019808840BA14
:1043E000FCF767F84146884200DC4046FBF744FF93
:1043F0005146FBF779FF2061484533DBFCF772F843
:104400005A46214BFBF7AEFFFCF77FF8206129E00D
:104410007019808840BAFCF74CF84146884200DCAD
:104420004046FBF729FF1949FBF75EFF606119E081
:104430007019808840BAFCF73CF84146884200DC9D
:104440004046FBF719FF5146FBF74EFFA061484578
:1044500008DBFCF747F85A460B4BFBF783FFFCF7EA
:1044600054F8A061AD1C7F1CBFB2EDB2062F9DD3E6
:10447000BDE8F09F380300200000AA44000010426D
:10448000040400209A9999999999D93F0000D04144
:10449000FEE770472DE9FF4F834687B0052092461F
:1044A00089460026CDF8180006EB860000EBC60111
:1044B00020489AF8002010F81130934232D100EBD6
:1044C00041019AF801004A7882422BD118226846AD
:1044D000891CFBF75BFE0025684600EB45001DF8D4
:1044E00015104FF6FF72477802EA81110F4300243E
:1044F0000BEB0508C4F10B0027FA00F0C00709EB2D
:1045000004001FFA88F180B201D0149A00E00A9AE0
:10451000FFF78EF9641CE4B20C2CEBD36D1CEDB2EA
:104520000C2DD9D3761C0698B6B28642BCD30BB0FC
:10453000BDE8F08F001C01082DE9FF4F834689B0CC
:104540001520924689460026CDF82000214806EB2A
:1045500006119AF8002010F81130934232D100EB86
:1045600041019AF801004A7882422BD12022684604
:10457000891CFBF70BFE0025684600EB45001DF883
:1045800015104FF6FF72477802EA01210F4300240D
:104590000BEB0508C4F10F0027FA00F0C00709EB88
:1045A00004001FFA88F180B201D0169A00E00C9A3C
:1045B000FFF73EF9641CE4B2102CEBD36D1CEDB296
:1045C000102DD9D3761C0898B6B28642BED30DB052
:1045D000BDE8F08F361901082DE9F84398461546D5
:1045E0000E460446089F09E043462A4621463046C7
:1045F0000097FFF7A1FF1034A4B2AD1C2878002863
:10460000F2D1BDE8F883000010B500224FF400613C
:104610000948FDF7A6F909490020C8704870084903
:1046200001F86B0F0120487004490246BDE81040B4
:10463000091D0448FEF70EBD0008014038030020A4
:10464000240A0020600200200148FDF76DBD000033
:104650005C0000200A460146FF230148FDF77EBEAC
:104660005C0000200A4601460148FDF72BBF000010
:104670005C00002010B5406A0021C187C186FDF7AB
:1046800051FD10BD10B5406A01684A6822F003026E
:104690004A60416D41F010014165012180F85110DF
:1046A000FDF740FD10BD10B5406AFDF77DFF10BD60
:1046B00038B50546446AFDF759F90246286800688E
:1046C000800623D42068416821F0200141602068E1
:1046D000416821F0020141606421204600F01AF88F
:1046E00018B1606D40F020006065A068002118B925
:1046F0002068C26880680090E186012084F851003B
:10470000606D18B12046FDF70DFD38BD2046FDF760
:104710003FFF38BDF8B515460E460B4600920446DD
:104720000122022100F010F840B933460022802116
:104730002046009500F008F8002804D0606D40F095
:10474000200060650320F8BD2DE9F8431E46914620
:1047500088460446089DFDF709F9401B351AFDF708
:1047600005F9074625480068C0F3CB30684338E0B8
:10477000701C37D0FDF7FAF8C01BA84203D215B160
:10478000009860B32CE02068416821F0E0014160AE
:104790006068B0F5827F0BD1A068B0F5004F02D001
:1047A000B0F5806F04D12068016821F040010160FC
:1047B000A06AB0F5005F09D12068016821F40051BA
:1047C00001602068016841F400510160012084F813
:1047D0005100002084F850000320BDE8F883002534
:1047E000401E00902068816838EA010004D0002152
:1047F0004945BDD10020F0E70121F9E71000002074
:104800007047FDF7B9B830B595B028216846FBF779
:10481000D6FC14210AA8FBF7D2FC18210FA8FBF73D
:10482000CEFC01210804CDE90010002502950224E8
:104830000491CDE907404FF4E01009906846FDF778
:10484000E1FA08B172B6FEE70AA90F2081E831004B
:104850004FF48060CDE90D0502210AA8FDF7F6F9B5
:1048600008B172B6FEE74FF4004011900F940FA804
:10487000FDF776F9002801D072B6FEE715B030BD1D
:10488000704700000148FEF70AB800004001002010
:104890000148FEF704B80000880100200148FDF738
:1048A000FEBF0000D0010020F0B50268204C214D71
:1048B000214E224F224B4FF0804CA04209D098420B
:1048C00007D0604505D0A84203D0B04201D0B8421D
:1048D00004D122F0700E4A6842EA0E02A04209D0CA
:1048E000984207D0604505D0A84203D0B04201D01D
:1048F000B84203D122F44075CA682A434D6922F0B8
:1049000080022A4302608A68C2620A688262A04208
:1049100001D0984201D10969016301214161016916
:10492000C90703D0016921F001010161F0BD000058
:10493000002C01400004004000080040000C004032
:104940000034014010B5846842EA032224F47F4415
:104950000A432243826010BD826822F070020A433B
:1049600042F0070181607047F0B5036A026A22F0E5
:104970000102026242688469124E24F073050C68D9
:104980002C4323F002058B682B430D4DA84201D028
:10499000B04205D123F00807CB683B4323F0040362
:1049A000A84201D0B04205D14D6922F440721543AE
:1049B0008A692A4342608461496841630362F0BDA9
:1049C000002C014000340140F0B5026A036A23F074
:1049D00010030362436884690D6824F4E64444EAE2
:1049E00005248D6822F0200242EA05120F4D104E78
:1049F000A84201D0B04206D1CF6822F0800242EA3C
:104A0000071222F04002A84201D0B04207D14D69FE
:104A100023F4406343EA85038D6943EA85034360D9
:104A20008461496881630262F0BD0000002C01408E
:104A300000340140F0B5026A036A23F48073036214
:104A40004368C46922F4007224F073050C68124EA6
:104A50002C438D6842EA05220E4DA84201D0B04297
:104A600006D1CF6822F4006242EA072222F4806273
:104A7000A84201D0B04207D14D6923F4405343EA24
:104A800005138D6943EA05134360C4614968C16336
:104A90000262F0BD002C01400034014030B5046AD0
:104AA000026A22F4805202624268C3690D6823F4EC
:104AB000E64343EA05238D6824F4005444EA0534B0
:104AC000084DA84202D0084DA84204D14D6922F4F5
:104AD000804242EA85124260C3614968016404620F
:104AE00030BD0000002C01400034014010B5036AC5
:104AF000046A24F001040462846924F0F00444EAA6
:104B0000021423F00A020A438461026210BD10B548
:104B1000036A046A24F010040462846923F0A00389
:104B200024F4704444EA023243EA011182610162D2
:104B300010BD00000148FEF75DB80000180200201B
:104B400010B5406A0021C185C184FEF751F810BD3F
:104B500001680C3151E8002F22F4907241E80023E3
:104B6000002BF5D10168143151E8002F22F0010229
:104B700041E80023002BF5D1016B012909D101681F
:104B80000C3151E8002F22F0100241E80023002BE5
:104B9000F5D1202180F8421000210163704708B54B
:104BA00090F84210222901D0022008BD82684FF4FB
:104BB00080539A4201D1016921B1816A9A421BD086
:104BC0004AB10AE00268816A5268C2F308020A80A8
:104BD000816A891C08E0026972B10268526802F0B9
:104BE0007F020A70816A491C8162C18D491E0904D5
:104BF000090CC18503D01BE002685268F1E7016827
:104C0000CA6822F02002CA600168CA6822F4807271
:104C1000CA6001684A6922F001024A61202180F8D5
:104C2000421000214163026B012A03D0FEF720FAF3
:104C3000002008BD016301680C3151E8002F22F00B
:104C4000100241E80023002BF5D101680A68D20662
:104C500002D50A6849680091818DFDF7C8FFE7E732
:104C600070B5044600680169E26821F440511143BF
:104C700001612169A0680843616908432168CA6825
:104C800041F20C639A430243CA6020684169A269F9
:104C900021F44071114341611E492068884202D1CC
:104CA000FDF77AF801E0FDF767F800EBC00101EBD2
:104CB0000012606864218000B2FBF0F3B3FBF1F3F3
:104CC0006FF018067343B2FBF0F5B2FBF0F605EB9C
:104CD0008305322303EB0515B5FBF1F5B6FBF1F6C1
:104CE00005F0F00505EB0615B2FBF0F6B2FBF0F0AF
:104CF000B0FBF1F06FF01802504306EB800003EBBD
:104D00000010B0FBF1F0216800F00F00284488602B
:104D100070BD00000038014081628285C28500219B
:104D20004164222180F84210016921B10168CA68FA
:104D300042F48072CA6001684A6942F001024A6125
:104D40000068C16841F02001C160002070472DE972
:104D5000F843984617460D460446089E24E0701C0A
:104D600022D0FCF703FEA0EB0800B0421AD8CEB167
:104D70002068C168490717D5802D15D0402D13D064
:104D80000168C94309070FD40168002540680090F5
:104D90002046FFF7DDFE0820606484F840500120C3
:104DA000BDE8F8830320FBE72068006835EA0000CF
:104DB00004D00020B842D2D00020F1E70120F9E76A
:104DC0000148FDF717BF0000600200200148FDF711
:104DD00011BF0000A80200200148FDF70BBF000032
:104DE000F0020020FEE700000FB4054B10B503A948
:104DF000044A029800F03CF810BC5DF814FB000077
:104E000079520008280000200FB4084B10B504A9FF
:104E100002AA039800F02CF8044602A9002000F032
:104E20003DF9204610BC5DF814FB00009D500008C1
:104E30000907090E002804DB00F1E02080F80014C7
:104E4000704700F00F0000F1E02080F8141D70475B
:104E500002E008C8121F08C1002AFAD17047704743
:104E6000002001E001C1121F002AFBD170470000A1
:104E70002DE9FF4F8BB09A460F460446002606E008
:104E800025280BD052460D999047641C761C20783B
:104E90000028F5D10FB03046BDE8F08F0025A946B7
:104EA00001227D4900E0054314F8013F203B02FA4E
:104EB00003F00842F7D120782E2817D114F8010FFB
:104EC00045F004052A280ED06FF02F022078A0F1BB
:104ED000300109290AD809EB890102EB410100EBF5
:104EE0000109641CF2E757F8049B641C20786C28C5
:104EF0000DD004DC4C2812D06A2811D104E07428AB
:104F00000DD07A280CD10AE045F4001507E061784D
:104F100045F48015814202D1641C05F58015641C9E
:104F2000207869283ED006DC0028B3D063280BD057
:104F3000642804D136E0732810D075285CD052461E
:104F40000D999047761CA5E017F8040B8DF800002A
:104F500000208DF80100E846012003E057F8048B9B
:104F60004FF0FF3069074FF0000501D40AE06D1CD7
:104F70004D450DDA8542FADB18F805100029F6D107
:104F800006E06D1C8542FCDB18F805100029F8D1FD
:104F90002E4404E018F8010B52460D9990476D1EFF
:104FA000F8D277E000200A90C5F302504FF00A0BC8
:104FB00002280CD001CFC117021E71F100020CDAD9
:104FC0000023D0EB030063EB01012D2208E0FF1D5D
:104FD00027F00707F7E80201EEE72A0504D52B22A0
:104FE0008DF82420012203E0EA070FD02022F7E702
:104FF0000DF12008089218E000200A90C5F3025035
:105000004FF00A0B022803D001CF00210022EFE766
:10501000FF1D27F00707F7E80201F7E75A460A9B4A
:10502000FBF78FFA303208F8012D50EA0102F5D172
:10503000ADEB080000F1200B680701D44FF0010927
:10504000D94502DDA9EB0B0000E0002081460025D8
:1050500006E009A85246405D0D9990476D1C761CEC
:1050600008988542F5DB04E0302052460D999047C0
:10507000761CB9F10001A9F10109F5DC05E018F889
:10508000010B52460D999047761CBBF10001ABF124
:10509000010BF4DC641CFAE6092801000A68531CC1
:1050A0000B601070704700001CB50948817841F210
:1050B0001C40012909D00749CDE9001027234222CD
:1050C0006421F220FEF7E0FD1CBD0349F4E7000077
:1050D00004040020D4960008B8820008FEB50E4CE7
:1050E0000E4D1026208829880096CDE901100C4F1E
:1050F0000323A2213A794FF48870FEF75FFD2088E0
:1051000029880096CDE90110FA780123BE214FF4D9
:105110008C70FEF753FDFEBD260000202400002009
:105120000404002010B5962000F05AF80022BDE8D3
:10513000104004210148FCF714BC0000000C0140A1
:10514000012204210148FCF70CBC0000000C0140C6
:10515000FEB5124D0C2640F2CF1428880096CDE9FA
:1051600001040F4F0123DE213E203A69FEF7ACFD1A
:1051700028880096CDE901040123DE21A2207A6966
:10518000FEF7A2FD28880096CDE901040123DE2167
:105190004FF48370BA69FEF797FDFEBD260000202C
:1051A000040400201CB50B48007F01280BD00A48DE
:1051B0001E234FF4E1611A46CDE9000103210F20BF
:1051C000FEF762FD1CBD1E2340F2CC6103481D2288
:1051D000F2E7000004040020CC570008D45E000869
:1051E00042F2283148434FF0E021486100208861B5
:1051F00001220A610A69D30701D0D203FAD50861F6
:1052000088617047FEB50E4C0E4D10262088298807
:105210000096CDE901100C4F03230A217A7BD72099
:10522000FEF7CCFC208829880096CDE90110BA7BD6
:1052300003230A2140F20110FEF7C0FCFEBD00006E
:105240002600002024000020040400200EB5074A98
:1052500007492020128809888DE8070005480123A6
:10526000A52102788720FEF7A9FC0EBD26000020AC
:10527000240000200404002013B54FF6FF73012220
:1052800069460248FDF718FF00981CBD180200206F
:1052900010B500F007FA00F0D7F9FFF7B3FFBDE84B
:1052A0001040FFF755BF00000A4810B5807800286D
:1052B0000FD1094C94F86B0001280AD194F86C00C6
:1052C000012806D100F036F9FFF7E2FF002084F84C
:1052D0006B0010BD14000020240A002004480021A7
:1052E000044B8170012283F86C20C170704700006C
:1052F00014000020240A002070B5224909780129F1
:105300001FD10D0229462048FCF726FB1F4E0446FC
:1053100069003046FCF720FB44EA40042946304649
:10532000FCF71AFB44EA800480213046FCF714FBAA
:1053300044EAC00440213046FCF70EFB44EA00106A
:10534000C0B21B2814D007DC0F280DD0172817D1A6
:10535000BDE87040FDF7D0BF1D280DD01E280FD12D
:10536000BDE87040FEF73AB9BDE87040FDF75ABF9E
:10537000BDE87040FEF72CB8BDE87040FEF7C2B83B
:1053800070BD00001800002000080140001001401E
:105390001CB5094841784FF40060012909D007493C
:1053A000CDE9001020231A46A6211846FEF76CFC12
:1053B0001CBD0349F4E7000004040020F0B200081B
:1053C000F0AA0008FCF7E0FAFFF71DFAFEF772FDFD
:1053D000FEF75AFDFEF704FDFEF70AFEFEF72CFE6F
:1053E000FEF78AFEFEF7BCFEFEF7DCFEFEF7FCFED3
:1053F000FEF716FFFEF730FFFEF74AFF1948FBF7EE
:10540000EDFB1948FDF7A6F91848FDF7A3F9184870
:10541000FDF7A0F9FFF7F8F8FEF756FAFBF796FB51
:1054200014A0FFF7E1FC1C4C09E000BF00F048F8B5
:10543000FEF74CFFFFF7B6FE6420FFF7D1FE207F9A
:105440000028F3D0FBF70AFAFFF756FF607F012828
:10545000FAD1FDF783FEFEF739FFFFF725FF00F0D5
:10546000A3F8F1E72C000020400100208801002073
:10547000D00100203D3D3D3D3D3D3D3D3D20636F24
:105480006465207374617274203D3D3D3D3D3D3D3A
:105490003D3D200D0A000000040400200A4610B51E
:1054A00001464FF47A730548FDF706FE034800688D
:1054B0000168C9434906FBD410BD0000600200200A
:1054C0007CB50A20FFF78CFE0122184DD40221463C
:1054D0002846FCF746FA0220FFF782FE35208DF8B9
:1054E000000003208DF8010000208DF802008DF8E7
:1054F00003008DF8040007208DF80500062168469A
:10550000FEF754FC010A8DF806108DF807000848D4
:1055100000990160019941600821FFF7BFFF002257
:1055200021462846FCF71DFA7CBD0000000801401A
:10553000240A00207CB50A20FFF752FE0122184DF4
:10554000D40221462846FCF70CFA0220FFF748FE59
:1055500035208DF8000004208DF8010000208DF822
:1055600002008DF803008DF8040006208DF8050078
:1055700001466846FEF71AFC010A8DF806108DF800
:105580000700084800990160019941600821FFF770
:1055900085FF002221462846FCF7E3F97CBD000088
:1055A00000080140240A00202DE9FE436846FBF76D
:1055B000FBFA164CBDF80000E0806078A178002668
:1055C00001274FF4FA68884215D1E088104D404514
:1055D00001D9AE7100E0AF71687901280BD11E20AE
:1055E000FFF7FEFD6A79A979062000F093F860784C
:1055F000C0F101006070E088404501D9A77000E06B
:10560000A6700A20FFF7ECFDBDE8FE831A0000201B
:10561000040400201CB5094841794FF4E1600129D8
:1056200009D00749CDE900101E231A4603212D2079
:10563000FEF72AFB1CBD0349F4E700000404002028
:10564000A86C0008A0650008FEB5134C134D182681
:10565000208829880096CDE90110114F03234121AC
:10566000FA791F20FEF7AAFA208829880096CDE94A
:1056700001103A7A032341216920FEF79FFA20881E
:1056800029880096CDE901107A7A03234121B320BD
:10569000FEF794FAFEBD0000260000202400002042
:1056A00004040020FEB5134C134D102620882988D1
:1056B0000096CDE90110114F03238221BA7A2820E8
:1056C000FEF77CFA208829880096CDE90110FA7A45
:1056D000032382217220FEF771FA20882988009620
:1056E000CDE901103A7B03238221BC20FEF766FA44
:1056F000FEBD00002600002024000020040400203D
:10570000034801780029FCD0002101707047000097
:10571000220000202DE9FC41044690460F460A2055
:10572000FFF75EFD0122184ED50229463046FCF7F0
:1057300018F90220FFF754FD35208DF800000620EF
:105740008DF80100200A8DF802008DF804708DF8A4
:1057500003408DF8058006216846FEF727FB010A05
:105760008DF806108DF8070008480099016001992E
:1057700041600821FFF792FE002229463046FCF7DF
:10578000F0F8BDE8FC81000000080140240A002078
:10579000010202030405060708090A0B0C0D0E0F8F
:1057A0001010010202030405060708090A0B0C0D7C
:1057B0000E0F1010000000000000000001020304A2
:1057C00006070809000000000102030400000000B1
:1057D00000000000000000000000000000000000C9
:1057E0000000000000000000000000000000002099
:1057F00000000000000000000000000000000000A9
:105800000000000000000000000000000000000098
:105810000000000000000000000000000000000088
:105820000000000000000000000000000000000078
:105830000000000000000000000000000000000068
:105840000000000000000000000000000000000058
:105850000000000000000000000000000020000028
:105860000000000000000000002000000000000018
:105870000000000000000000000000000000000028
:105880000000000000000000000000000000000018
:1058900000000000000000000000000000200000E8
:1058A00000000000000000000000000000000000F8
:1058B00000000000000000000000000000000000E8
:1058C00000000000000000000000000000000000D8
:1058D0000020000000000000000000200000000088
:1058E0000000000000000020000000000000000098
:1058F00000000000000000000000000000000000A8
:105900000000000000000000000000000000000097
:10591000000000000000000000007BEFE71CFFFF1C
:10592000FFFFE71C7BEF000000000000000000000C
:105930000000000000000000000000000000000067
:105940000000000000000000000000200000000037
:10595000000000009CF3FFFFFFFFAD75A534F79E2C
:10596000FFFFA51400000000000000000000000080
:105970000000000000000000000000000000000027
:1059800000000000000000000020000000009CF368
:10599000FFFFD69A18E3002000001082D69AFFFF7E
:1059A00042080000000000000000000000000000AD
:1059B00000000000000000000000000000000000E7
:1059C0000000000000000000A514FFFFA514000067
:1059D000000000000000000018E3FFFFB596000083
:1059E0000000000000000000000000000000002097
:1059F0000000000000000000000000000020000087
:105A000000009492FFFF9CF30000000000000000E3
:105A1000000000000000D69AC61800200000000018
:105A20000000000000000000000000000020000056
:105A30000000000000000000000000000000C61888
:105A400094920000000010A26B6D00200000000086
:105A50000000EF7DBDF70000000000000000000026
:105A60000000000000000000000000000020000016
:105A700000000020000000000020000000000000E6
:105A8000000039C7FFFF0000000000006B6DFFFF42
:105A900094920000000000000000000000000000E0
:105AA00000200000000000000000002000000000B6
:105AB0006B6D4208000000000000000000000000C4
:105AC000000000000000630CFFFFEF7D108200006B
:105AD00000000000000000000000000000000000C6
