:03000000020E40AD
:0C0E4000787FE4F6D8FD758121020E8752
:10156800D3EF9400EE9400401600000075080B7548
:0F15780009BED509FDD508FAEF1F70E41E80E10A
:011587002241
:10008E00D3EF9400EE9400400A000000EF1F70F0D2
:04009E001E80ED22B1
:10165F005468652076616C75652069732025642058
:03166F000D0A0061
:10161B0043BC807F0A7E0012156853DEFC43DE0C50
:0A162B0053BCDF53A8DF43DE20228A
:10131400E4900212F0A3F053BCF0EF444042BCE569
:10132400BC30E5FB53BCDF53BCBFAFBDEFFFADBE6C
:10133400ED900212CFF0A3EFF07BFF7A16795F9065
:101344000212E0FFA3E0900217CFF0A3EFF0120126
:0913540011900212E0FEA3E0FF7B
:01135D00226D
:1015470075940275931C7592027591F075960EE469
:10155700F595F5B2F5B175B49EF5B375CA04F5C93D
:011567002261
:10001E003D3D3D3D3D3D3D3D3D3D20636F64652095
:10002E007374617274203D3D3D3D3D3D3D3D3D3D12
:04003E00200D0A0087
:1013E60043BA8012154712163512161B9001117456
:1013F60001F01216851215A81216721216A81200FE
:10140600031216B61216981215E5121429D2AF1247
:1014160014AB7BFF7A00791E1201111210B9120F5C
:03142600DB80F870
:1014290043BA8090FEB6E0F090FEEDE4F090FEEA5B
:101439007470F0A3F090FEED7411F090FEF2740454
:10144900F0A37451F090FEF0E4F0A37431F090FE33
:10145900B5E04450F090FEFD7480F090FEE0E04469
:0314690001F0226D
:04000300438F1022F5
:10167200438E805389F0758ACD758CD4C28DD28CFD
:03168200D2A922C8
:0A16B600538EBF53890F43891022A1
:1016980053D1DFE4F5D375D2DC43D18043AF402288
:10168500759A50438E0475D7E875D6FF438E10437F
:03169500AF012280
:1016350075AC1043AC4043D10275D5E875D4FF4372
:06164500D10843AF0822AA
:0D000E00E4F5C7F5C5F5C675C380F5C4223D
:1015C70075C78075F50C75C5038FC4EEF5C375C671
:0E15D7005A75C6A57F0A7E0012156802000E26
:1015030075C78075F50C75C5028FC4EEF5C3AF05BD
:101513008FC275C65A75C6A57F0A7E00121568026A
:02152300000EB8
:1015880075C78075F50C75C5018FC4EEF5C375C6B2
:101598005A75C6A57F0A7E00121568AFC202000EF2
:1009CB0060FC011203D503FA04200446046D049560
:1009DB0004BE04E70510053A0565059005BB05E760
:1009EB000613063F066C069906C606F30720074D4D
:1009FB00077A07A707D40800082D0859088508B1FE
:100A0B0008DC09070931095B098409AD09D609FD21
:100A1B000A240A4B0A710A960ABB0ADE0B020B2444
:100A2B000B460B670B870BA70BC60BE40C020C1EBC
:100A3B000C3A0C560C700C8A0CA40CBC0CD40CECA1
:100A4B000D020D190D2E0D430D570D6B0D7E0D90D7
:100A5B000DA20DB40DC50DD50DE50DF50E040E1241
:100A6B000E200E2E0E3B0E480E550E610E6D0E789F
:100A7B000E830E8D0E970EA10EAB0EB40EBD0EC6D1
:100A8B000ECF0ED70EDF0EE70EEF0EF60EFD0F0498
:100A9B000F0B0F110F170F1D0F230F290F2F0F35D3
:100AAB000F3A0F3F0F440F490F4E0F530F580F5C68
:100ABB000F600F650F690F6D0F710F740F780F7C3F
:0E0ECC00900212EBF0A3EAF0A3E9F0A3EDF020
:100EDA00E4900219F0A3F0900218F0900215E014C1
:100EEA00FF900218E0FEC39F505A900212E0FBA343
:100EFA00E0FAA3E0F975F002EEA4F58285F0831218
:100F0A00056FFF900216E0FCA3E0FDC39FEC95F08D
:100F1A00402AA3E02401FFE433FEEF25E0FFEE338D
:100F2A00FE8F828E8312056FFFC3ED9FEC95F05002
:100F3A000B900218E0FFA3E4F0A3EFF0900218E090
:0C0F4A0004F08097900219E0FEA3E0FF85
:010F56002278
:0512550090020EEFF015
:10125A00E4900210F0A3F090020FF090020EE0FF6B
:10126A00121314900211E02FF0900210E03EF09059
:10127A00020FE004F0E0C3940A40E0900210E0FE9E
:10128A00A3E0FF7C007D0A12051A900210EEF0A37B
:10129A00EFF07B017A017912900210E0FFA3E0904F
:0C12AA000216CFF0A3EFF07D7E020ECC08
:100FDB00900110E0640170677F0412125590010AB2
:100FEB00EFF07F0512125590010BEFF07F061212F6
:100FFB005590010CEFF012118D900111E06401700E
:10100B003990010DE0FF90010AE0C39F4004D2C16B
:10101B008002C2C190010EE0FF90010BE0C39F4024
:10102B0004D2C28002C2C290010FE0FF90010CE01B
:10103B00C39F4004D2C38002C2C3E4900110F022CC
:0E16A800E4900253F0D2C4D2C3D2C2D2C12207
:0300530002005652
:10005600C0E0C083C082C0D075D000C006900254F4
:10006600E0FEA3E0F58BEEF58D9002537401F0D21D
:0E0076008ED2ABD006D0D0D082D083D0E03274
:03001B000214D9F3
:1014D900C0E0C083C082C0D0900253E0B4010CE4E4
:1014E900F0C2C4758BF7758DFF8006D2C4C28EC257
:0A14F900ABD0D0D082D083D0E03217
:10164B00EF75F05AA424B4FEE5F034DC900254F0AC
:04165B00A3CEF02208
:0A16C000EFB40103C2A122D2A1225F
:1015E50090024B7405F0A37450F0A37405F0A37436
:0B15F50050F0A37405F0A37450F02226
:05135E00900256EFF0C3
:10136300E4A3F0A3F0A3F0900256E0FF121314904D
:101373000258E02FF0900257E03EF0900259E0044B
:10138300F0E0C3940F40E0900257E0FEA3E0FF7C3F
:0E139300007D0F12051A900257EEF0A3EFF046
:0113A1002229
:040ACB0041010900DC
:1015A800E4900000F0A3F0900082F0900102F0F0C7
:0F15B800A3F0A3F0A3F0A3F0C2C7900108F022A4
:03004300020F5752
:100F5700C0E0C083C082C0D075D000C007E59A301A
:100F6700E12F539AFD900000E4F0900102E0601A2F
:100F7700A3E0FF04F074022FF582E43400F583E068
:100F8700F59B900102E014F08007900103E4F0C2A2
:100F9700C7E59A30E033539AFE900001E070219044
:100FA7000106E0D394804002E4F0900106E0248239
:100FB700F582E43400F583E59BF0900106E004F048
:100FC700900104E4F0A37432F0D007D0D0D082D0DF
:040FD70083D0E032B1
:03000B0002146C70
:10146C00C0E0C083C082C0D0900104E07002A3E051
:10147C006024900105E024FFF0900104E034FFF0BB
:10148C00E07002A3E0700F900106E0D394004006D8
:0F149C009000017401F0D0D0D082D083D0E03224
:03008B0002152536
:10152500C0E0C083C082E5AC30E10853ACFD90015A
:1015350009E4F0E5AC30E00353ACFED082D083D0B3
:02154500E03292
:0B0046008FAD900109E070FA04F02279
:1014AB007F107E00121588EFB4FF2090023C74036E
:1014BB00F0A37401F0E4A3F0A37432F0A37403F06F
:0E14CB00A37450F0A3F0A3F012104B020CAF6C
:10104B00E4FFFE1215C790023CE0FDE4FFFE121513
:10105B000390023DE0FD7F017E0012150390023EDE
:10106B00E0FD7F027E0012150390023FE0FD7F033F
:10107B007E00121503900240E0FD7F047E001215E6
:10108B0003900241E0FD7F057E00121503900242A2
:10109B00E0FD7F067E00121503900243E0FD7F0703
:0E10AB007E001215037D587F107E0002150393
:100CAF00E4FFFE12158890023CEFF0E075F0B8A457
:100CBF00FF90FEF9E5F0F0A3EFF07F017E00121533
:100CCF008890023DEFF030E0047F018002E4FF12D4
:100CDF0016C07F027E0012158890023EEFF030E0C2
:100CEF0011438F109001117401F0C2C3C2C2C2C16F
:100CFF008010538FEFE4900111F0D2C4D2C3D2C24F
:100D0F00D2C17F047E00121588900240EFF07F035E
:100D1F007E0012158890023FEFF0A3E075F0B8A4A3
:100D2F00FF90FEFBE5F0F0A3EFF090023FE0FF1223
:100D3F00164B7F057E00121588900241EFF07F065B
:100D4F007E00121588900242EFF07F077E00121589
:100D5F0088900243EFF0900241E090010DF0900275
:0A0D6F0042E090010EF0A3EFF02225
:10160000D2857F027E0012008EC2857F197E001275
:0B1610001568D2857F1E7E0002008E50
:10112700E4900213F0900212F03085FD7F287E00D4
:1011370012008E30851F2085FD900213E0FF90027C
:1011470012E0FEC374079EFEF87401088002C333E1
:10115700D8FC4F801B900213E0FF900212E0FEC301
:1011670074079EFEF87401088002C333D8FCF45F4D
:10117700900213F0900212E004F0E0C3940840A933
:05118700900213E0FFDF
:01118C002240
:10118D0012160020855D3085FD2085FD12112790FA
:10119D00020EEFF012112790020FEFF012112790AF
:1011AD000210EFF0121127900211EFF0121127D259
:1011BD008590020FE0FD90020EE0F92DFDE433FC69
:1011CD00900210E0FE7A002DFDEA3CFCA3E02DFD1F
:1011DD00EA3CFCEFB5050CEAB5040890025EEEF0B2
:0311ED00A3E9F083
:0111F00022DC
:1010B900900001E064017065F07B017A007982900B
:1010C9000106E024FEFD1211F1AD07AC0690010600
:1010D900E0FB2480F582E43400F583E0FE74812B83
:1010E900F582E43400F583E0FBEBFFE4900106F0C0
:1010F900EDB50729ECB50625900082E0B4351EA3AD
:10110900E024FC600F24FE600E24F6600D240D70AF
:0D1119000C020882020ADA020BD41206FA58
:0111260022A6
:100882009002477403F0900086A3E025E0900246B0
:10089200F0900084E0FEA3E0FDEDFF900249EEF04F
:1008A200A3EFF09000027435F0A37403F0900246B7
:1008B200E0900004F090020EEEF0A3EFF0900246FA
:1008C200E0C313FF90024AE02FFF900249E0340098
:1008D200FE90020EE0FCA3E0FDC39FEC9E400302EB
:1008E20009BFE4900245F0900244F0EC6003020973
:1008F2007EED14601A14602414602B14606414607A
:100902006E24057077E4900244F090FEF98040E492
:10091200900244F020A165A304F08060E4900244B8
:10092200F090023E8051900254E0FEA3E0FFEF24DB
:100932004CFFEE3423FEE434FFFDE434FFFCE47BA1
:100942005AFAF9F81213A2900244EFF090FEFBE07B
:10095200FEA3E0FF7C007DB812051A900245EFF07D
:10096200801A90010EE0900244F090010D8008E49C
:10097200900244F090010FE0900245F0900244E0B2
:10098200FF900247E0FE04F074022EF582E4340088
:10099200F583EFF0900245E0FF900247E0FE04F09D
:1009A20074022EF582E43400F583EFF090020FE03A
:1009B20004F0700690020EE004F00208BF900246B6
:0909C200E02403FD7F03020D791E
:100ADA009002477403F0900086A3E025E090024656
:100AEA00F0900084E0FEA3E0FDEDFF900249EEF0F5
:100AFA00A3EFF09000027435F0A37404F09002465C
:100B0A00E0900004F0AC06900246E0F9C313FF90AF
:100B1A00024AE02FFF900249E03400FEC3ED9FEC49
:100B2A009E4003020BCBE4900245F0900244F0ECA5
:100B3A007057ED1460221460241460331460351465
:100B4A0060372405704390010AE0900245F0900155
:100B5A000BE0900244F0803190010C800B90025F10
:100B6A00E0900244F090025EE0900245F0801A9014
:100B7A00024B800890024D800390024FE0FAA3E0F6
:100B8A00FBEA900244F0A3EBF0900244E0FF9002EB
:100B9A0047E0FE04F074022EF582E43400F583EF98
:100BAA00F0900245E0FF900247E0FE04F074022E46
:100BBA00F582E43400F583EFF00DBD00010C020B61
:0A0BCA0011E92403FD7F04020D79F8
:100BD400900085E014603414604B14607814700342
:100BE400020C7F147003020C9924056003020CA507
:100BF400900245E0FD75F0B8A4FF90FEF9E5F0F031
:100C0400A3EFF090023CEDF0020CA5900245E03019
:100C1400E0047F018002E4FF1216C0900245E090D8
:100C2400023DF0807C900245E0FF30E011438F10DC
:100C34009001117401F0C2C3C2C2C2C18010538FAB
:100C4400EFE4900111F0D2C4D2C3D2C2D2C1900257
:100C54003EEFF0804C900244E0FD900252F090028E
:100C640045E0FC75F0B8A4FF90FEFBE5F0F0A3EFBF
:100C7400F090023FEDF0A3ECF08026900245E09066
:100C8400010DF0900244E090010EF090010DE0900F
:100C94000241F0800C900245E090010FF090024375
:0B0CA400F07D087F06120D7902104B56
:1006FA009002487407F0900088E0900246F090005B
:10070A0084E0FEA3E0FDEDFF900249EEF0A3EFF0D6
:10071A0078027C007D017B017A0079827E007F0667
:10072A001204DB900249E0FFA3E090020ECFF0A38F
:10073A00EFF0900246E0C313FF90024AE02FFF90C9
:10074A000249E03400FE90020EE0FCA3E0FDC39FE4
:10075A00EC9E4003020878900248E02482F582E485
:10076A003400F583E0900244F0900248E02483F5D7
:10077A0082E43400F583E0900245F0EC600302085D
:10078A0060ED14603414604C14607914700302082C
:10079A003A147003020854240560030208609002A8
:1007AA0045E0FD75F0B8A4FF90FEF9E5F0F0A3EF7F
:1007BA00F090023CEDF0020860900245E030E0045F
:1007CA007F018002E4FF1216C0900245E090023DCC
:1007DA00F0020860900245E0FF30E011438F10906C
:1007EA0001117401F0C2C3C2C2C2C18010538FEF9B
:1007FA00E4900111F0D2C4D2C3D2C2D2C190023E57
:10080A00EFF08052900244E0FF900252F012164B31
:10081A00900245E0FD75F0B8A4FF90FEFBE5F0F00C
:10082A00A3EFF0900244E090023FF0A3EDF080269F
:10083A00900245E090010DF0900244E090010EF024
:10084A0090010DE0900241F0800C900245E0900189
:10085A000FF0900243F0900248E02402F090020F59
:10086A00E004F0700690020EE004F002073C7D08F6
:08087A007F10120D7902104BF2
:050D7900900210EDF0F6
:100D7E00EF24FC600F24FE604F24F66064240D60A7
:100D8E0003020E2D7B017A007902900210E0FD1213
:100D9E0011F1900211EEF0A3EFF0900211E0FEA31C
:100DAE00E0FD900210E0FC2403F582E43400F583AC
:100DBE00EDF0EEFF74022CF582E43400F583EFF0D3
:100DCE00900210E02402805378027C007D017B01AA
:100DDE007A0079827E007F081204DB900210E08098
:100DEE003A78027C007D017B017A0079827E007F59
:100DFE00061204DB7B017A0079027D061211F19056
:100E0E000211EEF0A3EFF0900211E0FEA3E09000CD
:100E1E0009F0EE900008F0900210E0900102F0D27E
:100E2E00C77F027E00121568439A027F017E000280
:020E3E00156835
:0511F100900213EDF077
:1011F60074FFA3F0A3F0120501FF900214E0F0A320
:10120600E06FF0E4FD900214E0FEA3E0FF30E01989
:10121600EEC313FEEF13FFEE64A0FEEF6401FF9032
:101226000214EEF0A3EFF0800B900214E0C313F06B
:10123600A3E013F00DEDB408CC740129F9E43AFAF1
:0E124600900213E014F070AEA3E0FEA3E0FFF0
:011254002277
:0A0ACF0042025A000042025C0000DF
:0300A3000212B690
:0612B600C0E0C083C0820D
:1012BC0090025BE004F0700690025AE004F0900299
:1012CC005AE07004A3E06464700C90011004F09078
:1012DC00025AE4F0A3F0900108E0702590025DE062
:1012EC0004F0700690025CE004F090025CE0700484
:1012FC00A3E06464700B90025CF0A3F0900108040E
:01130C00F0F0
:07130D00D082D083D0E03252
:100E4C000213E6E493A3F8E493A34003F68001F2C3
:100E5C0008DFF48029E493A3F85407240CC8C333A7
:100E6C00C4540F4420C8834004F456800146F6DF76
:100E7C00E4800B01020408102040809009CBE47E32
:100E8C00019360BCA3FF543F30E509541FFEE4936B
:100E9C00A360010ECF54C025E060A840B8E493A332
:100EAC00FAE493A3F8E493A3C8C582C8CAC583CA5D
:100EBC00F0A3C8C582C8CAC583CADFE9DEE780BE15
:010AD900001C
:10040B00E709F608DFFA8046E709F208DFFA803ED3
:10041B0088828C83E709F0A3DFFA8032E309F608C0
:10042B00DFFA8078E309F208DFFA807088828C8328
:10043B00E309F0A3DFFA806489828A83E0A3F608DC
:10044B00DFFA805889828A83E0A3F208DFFA804CB6
:10045B0080D280FA80C680D4806980F2803380108D
:10046B0080A680EA809A80A880DA80E280CA8033F6
:10047B0089828A83ECFAE493A3C8C582C8CCC5836E
:10048B00CCF0A3C8C582C8CCC583CCDFE9DEE7803E
:10049B000D89828A83E493A3F608DFF9ECFAA9F0BD
:1004AB00EDFB2289828A83ECFAE0A3C8C582C8CC13
:1004BB00C583CCF0A3C8C582C8CCC583CCDFEADE2C
:1004CB00E880DB89828A83E493A3F208DFF980CC8E
:1004DB0088F0EF60010E4E60C388F0ED2402B40487
:1004EB000050B9F582EB2402B4040050AF2323452E
:0604FB00822390045B73F4
:10050100BB010689828A83E0225002E722BBFE02F8
:09051100E32289828A83E493222B
:10051A00BC000BBE0029EF8DF084FFADF022E4CCC5
:10052A00F875F008EF2FFFEE33FEEC33FCEE9DEC8E
:10053A00984005FCEE9DFE0FD5F0E9E4CEFD22EDD4
:10054A00F8F5F0EE8420D21CFEADF075F008EF2F1E
:10055A00FFED33FD4007985006D5F0F222C398FD0F
:05056A000FD5F0EA22AC
:10056F00BB0110E58229F582E5833AF583E0F5F0CA
:10057F00A3E0225009E92582F886F008E622BBFEA7
:10058F000AE92582F8E2F5F008E222E5832AF583ED
:08059F00E993F5F0A3E99322B2
:1013A200C2D5E830E70FB2D5E4C39BFBE49AFAE476
:1013B20099F9E498F8EC30E717B2D51213D812066F
:1013C20022E4C39BFBE49AFAE499F9E498F88003D7
:1013D20012062230D50DE4C39FFFE49EFEE49DFD7C
:0413E200E49CFC2269
:1000A600E5082417F582E43402F583E0050822907A
:1000B6000214300703900217E475F0011206B40229
:1000C60005012000E97F2ED2008018EF540F2490FE
:1000D600D43440D4FF30040BEF24BFB41A005003CD
:1000E6002461FFE50960021509050CE50C7002059F
:1000F6000B30070E900214E475F0011206B4EF02FD
:1001060005D40200467403D2078003E4C207F5084B
:100116009002141206CBE4F509F50BF50CE509601F
:10012600077F201200E980F5750AFFC201C200C2EE
:1001360002C203C205C206C2081200B5FF700D3026
:1001460007057F001200FAAF0CAE0B22B4255FC282
:10015600D5C2041200B5FF24D0B40A00501A75F0B7
:100166000A780930D50508B6FF0106C6A426F6208A
:10017600D5047002D20380D924CFB41A00EF5004FC
:10018600C2E5D2040202FBD20180C6D20080C0D2F0
:100196000280BCD2D580BAD20580B47F201200E995
:1001A6002002077401B5090040F11200A6FF1200F3
:1001B600E9020123D208D20680951200A6FB12009E
:1001C600A6FA1200A6F94A4B700679CC7A037BFF91
:1001D60020022EE509602A7E008E827583001205B4
:1001E600A760060EEE650A70F0C2D5EBC0E0EAC065
:1001F600E0E9C0E0EE120342D0E0F9D0E0FAD0E048
:10020600FB120501FF60AAEBC0E0EAC0E0E9C0E02E
:100216001200E9D0E02401F9D0E03400FAD0E0FB86
:10022600E50A0460DCD50AD980877BFF7A03793E2C
:10023600D202809C791080027908C206C208800822
:10024600D2D5790A8004790AC2D5E50A047002F586
:100256000AE4FAFDFEFF1200A6FC7B082001131239
:1002660000A6FD7B1030000A1200A6FE1200A6FFB3
:100276007B20EC3382D592D55013C3E43000069F21
:10028600FFE49EFEE42001039DFDE49CFCE4CBF824
:10029600C201EC700CCFCECDCCE824F8F870F38018
:1002A60017C3EF33FFEE33FEED33FDEC33FCEB33D8
:1002B600FB994002FB0FD8E9EB300105F8D0E0C40A
:1002C60048B201C0E00AEC4D4E4F78207B0070C268
:1002D600EAB50A0040BCC0E0120344D0F0D0E020EA
:1002E6000104C4C0E0C4B201C0F01200D2D0F0D5FF
:1002F600F0EB0201231206D401C053023A580191D1
:100306004C018D42023E4F02464402464901A64335
:08031600024C55023046023092
:10031E004502304703EC5001952D01992E01BC2B5F
:10032E00019D2301BA2003D52A015548000001B4CE
:10033E003F3F3F00790AA2D5200314300509B910BA
:10034E00020404B9080104A2D520060250010420BB
:10035E0002689202B509005034C0E07F20300319C4
:10036E007F30A20272067205500F12039BC202C2A8
:10037E0006C205C2087F30800F300503E9C0E012C7
:10038E0000E9300503D0E0F9D0E0B509CC3005170F
:10039E007F30B9100C1200E97F583004077F788047
:1003AE0003B908031200E93002057F2D0200E97F30
:1003BE00202008F87F2B2006F322920280CF286E91
:1003CE00756C6C2900D2011200A63001F8C20178BA
:1003DE000930D50108F60201552D50434958120037
:1003EE00A62403B405004001E49003E7931200DA5B
:0D03FE00743A1200DAD20375090402023AC3
:1005A700BB010CE58229F582E5833AF583E0225009
:1005B70006E92582F8E622BBFE06E92582F8E22253
:0D05C700E58229F582E5833AF583E493226D
:1005D400BB010689828A83F0225002F722BBFE0106
:0205E400F32200
:1005E60075F008758200EF2FFFEE33FECD33CDCCCC
:1005F60033CCC58233C5829BED9AEC99E58298404F
:100606000CF582EE9BFEED9AFDEC99FC0FD5F0D62B
:10061600E4CEFBE4CDFAE4CCF9A88222B800C1B955
:100626000059BA002DEC8BF084CFCECDFCE5F0CB93
:10063600F97818EF2FFFEE33FEED33FDEC33FCEBCC
:1006460033FB10D703994004EB99FB0FD8E5E4F987
:10065600FA227818EF2FFFEE33FEED33FDEC33FC74
:10066600C933C910D7059BE99A4007EC9BFCE99A68
:10067600F90FD8E0E4C9FAE4CCFB2275F010EF2FAD
:10068600FFEE33FEED33FDCC33CCC833C810D707AD
:100696009BEC9AE899400AED9BFDEC9AFCE899F8E8
:0E06A6000FD5F0DAE4CDFBE4CCFAE4C8F9227B
:1006B400F8E0FBA3A3E0F925F0F0E58215827002CF
:0706C4001583E0FA38F02273
:0906CB00EBF0A3EAF0A3E9F02230
:1006D400D083D082F8E4937012740193700DA3A3B5
:1006E40093F8740193F5828883E4737402936860C9
:0606F400EFA3A3A380DFC9
:00000001FF
